{
  "_format": "hh-sol-artifact-1",
  "contractName": "NFTsMarketplaceFactory",
  "sourceName": "onchain/NFTsMarketplaceFactory.sol",
  "abi": [
    {
      "inputs": [],
      "stateMutability": "nonpayable",
      "type": "constructor"
    },
    {
      "inputs": [
        {
          "internalType": "uint256",
          "name": "collectionId",
          "type": "uint256"
        },
        {
          "internalType": "address",
          "name": "collection",
          "type": "address"
        }
      ],
      "name": "CollectionIsNotForSale",
      "type": "error"
    },
    {
      "inputs": [
        {
          "internalType": "uint256",
          "name": "sent",
          "type": "uint256"
        },
        {
          "internalType": "uint256",
          "name": "required",
          "type": "uint256"
        }
      ],
      "name": "InsufficientETH",
      "type": "error"
    },
    {
      "inputs": [
        {
          "internalType": "address",
          "name": "owner",
          "type": "address"
        }
      ],
      "name": "OwnableInvalidOwner",
      "type": "error"
    },
    {
      "inputs": [
        {
          "internalType": "address",
          "name": "account",
          "type": "address"
        }
      ],
      "name": "OwnableUnauthorizedAccount",
      "type": "error"
    },
    {
      "inputs": [],
      "name": "ReentrancyGuardReentrantCall",
      "type": "error"
    },
    {
      "inputs": [
        {
          "internalType": "address",
          "name": "caller",
          "type": "address"
        },
        {
          "internalType": "address",
          "name": "owner",
          "type": "address"
        }
      ],
      "name": "UnauthorizedCollectionOwner",
      "type": "error"
    },
    {
      "anonymous": false,
      "inputs": [
        {
          "indexed": true,
          "internalType": "uint256",
          "name": "collectionId",
          "type": "uint256"
        },
        {
          "indexed": true,
          "internalType": "address",
          "name": "owner",
          "type": "address"
        },
        {
          "indexed": false,
          "internalType": "address",
          "name": "collectionAddress",
          "type": "address"
        }
      ],
      "name": "CollectionCreated",
      "type": "event"
    },
    {
      "anonymous": false,
      "inputs": [
        {
          "indexed": true,
          "internalType": "uint256",
          "name": "collectionId",
          "type": "uint256"
        },
        {
          "indexed": true,
          "internalType": "uint256",
          "name": "oldPrice",
          "type": "uint256"
        },
        {
          "indexed": true,
          "internalType": "uint256",
          "name": "newPrice",
          "type": "uint256"
        }
      ],
      "name": "CollectionPriceUpdated",
      "type": "event"
    },
    {
      "anonymous": false,
      "inputs": [
        {
          "indexed": true,
          "internalType": "uint256",
          "name": "collectionId",
          "type": "uint256"
        },
        {
          "indexed": true,
          "internalType": "address",
          "name": "by",
          "type": "address"
        },
        {
          "indexed": true,
          "internalType": "bool",
          "name": "isAllowed",
          "type": "bool"
        }
      ],
      "name": "CollectionSaleStatusUpdated",
      "type": "event"
    },
    {
      "anonymous": false,
      "inputs": [
        {
          "indexed": true,
          "internalType": "address",
          "name": "previousOwner",
          "type": "address"
        },
        {
          "indexed": true,
          "internalType": "address",
          "name": "newOwner",
          "type": "address"
        }
      ],
      "name": "OwnershipTransferred",
      "type": "event"
    },
    {
      "stateMutability": "payable",
      "type": "fallback"
    },
    {
      "inputs": [
        {
          "internalType": "uint256",
          "name": "collectionId_",
          "type": "uint256"
        },
        {
          "internalType": "address",
          "name": "of_",
          "type": "address"
        }
      ],
      "name": "BuyCollection",
      "outputs": [],
      "stateMutability": "payable",
      "type": "function"
    },
    {
      "inputs": [],
      "name": "SELL_FEE",
      "outputs": [
        {
          "internalType": "uint256",
          "name": "",
          "type": "uint256"
        }
      ],
      "stateMutability": "view",
      "type": "function"
    },
    {
      "inputs": [
        {
          "internalType": "uint256",
          "name": "collectionId_",
          "type": "uint256"
        },
        {
          "internalType": "uint256",
          "name": "newPrice_",
          "type": "uint256"
        },
        {
          "internalType": "bool",
          "name": "status_",
          "type": "bool"
        }
      ],
      "name": "UpdateCollectionStatus",
      "outputs": [],
      "stateMutability": "nonpayable",
      "type": "function"
    },
    {
      "inputs": [],
      "name": "collectionId",
      "outputs": [
        {
          "internalType": "uint256",
          "name": "",
          "type": "uint256"
        }
      ],
      "stateMutability": "view",
      "type": "function"
    },
    {
      "inputs": [
        {
          "internalType": "uint256",
          "name": "",
          "type": "uint256"
        }
      ],
      "name": "collectionPrice",
      "outputs": [
        {
          "internalType": "uint256",
          "name": "",
          "type": "uint256"
        }
      ],
      "stateMutability": "view",
      "type": "function"
    },
    {
      "inputs": [
        {
          "internalType": "uint256",
          "name": "",
          "type": "uint256"
        },
        {
          "internalType": "address",
          "name": "",
          "type": "address"
        }
      ],
      "name": "collections",
      "outputs": [
        {
          "internalType": "address",
          "name": "",
          "type": "address"
        }
      ],
      "stateMutability": "view",
      "type": "function"
    },
    {
      "inputs": [
        {
          "internalType": "string",
          "name": "collectionName_",
          "type": "string"
        },
        {
          "internalType": "string",
          "name": "collectionSymbol_",
          "type": "string"
        }
      ],
      "name": "createCollection",
      "outputs": [
        {
          "internalType": "uint256",
          "name": "",
          "type": "uint256"
        }
      ],
      "stateMutability": "nonpayable",
      "type": "function"
    },
    {
      "inputs": [
        {
          "internalType": "uint256",
          "name": "",
          "type": "uint256"
        }
      ],
      "name": "isForSale",
      "outputs": [
        {
          "internalType": "bool",
          "name": "",
          "type": "bool"
        }
      ],
      "stateMutability": "view",
      "type": "function"
    },
    {
      "inputs": [],
      "name": "owner",
      "outputs": [
        {
          "internalType": "address",
          "name": "",
          "type": "address"
        }
      ],
      "stateMutability": "view",
      "type": "function"
    },
    {
      "inputs": [],
      "name": "renounceOwnership",
      "outputs": [],
      "stateMutability": "nonpayable",
      "type": "function"
    },
    {
      "inputs": [
        {
          "internalType": "address",
          "name": "newOwner",
          "type": "address"
        }
      ],
      "name": "transferOwnership",
      "outputs": [],
      "stateMutability": "nonpayable",
      "type": "function"
    },
    {
      "inputs": [],
      "name": "withdrawFees",
      "outputs": [],
      "stateMutability": "nonpayable",
      "type": "function"
    },
    {
      "stateMutability": "payable",
      "type": "receive"
    }
  ],
  "bytecode": "0x60a0604052666a94d74f4300006080908152503480156200001f57600080fd5b5062000030620000e460201b60201c565b600073ffffffffffffffffffffffffffffffffffffffff168173ffffffffffffffffffffffffffffffffffffffff1603620000a55760006040517f1e4fbdf70000000000000000000000000000000000000000000000000000000081526004016200009c919062000359565b60405180910390fd5b620000b681620000ec60201b60201c565b5060018081905550620000de620000d2620000e460201b60201c565b620001b060201b60201c565b62000376565b600033905090565b60008060009054906101000a900473ffffffffffffffffffffffffffffffffffffffff169050816000806101000a81548173ffffffffffffffffffffffffffffffffffffffff021916908373ffffffffffffffffffffffffffffffffffffffff1602179055508173ffffffffffffffffffffffffffffffffffffffff168173ffffffffffffffffffffffffffffffffffffffff167f8be0079c531659141344cd1fd0a4f28419497f9722a3daafe3b4186f6b6457e060405160405180910390a35050565b620001c06200024960201b60201c565b600073ffffffffffffffffffffffffffffffffffffffff168173ffffffffffffffffffffffffffffffffffffffff1603620002355760006040517f1e4fbdf70000000000000000000000000000000000000000000000000000000081526004016200022c919062000359565b60405180910390fd5b6200024681620000ec60201b60201c565b50565b62000259620000e460201b60201c565b73ffffffffffffffffffffffffffffffffffffffff166200027f620002eb60201b60201c565b73ffffffffffffffffffffffffffffffffffffffff1614620002e957620002ab620000e460201b60201c565b6040517f118cdaa7000000000000000000000000000000000000000000000000000000008152600401620002e0919062000359565b60405180910390fd5b565b60008060009054906101000a900473ffffffffffffffffffffffffffffffffffffffff16905090565b600073ffffffffffffffffffffffffffffffffffffffff82169050919050565b6000620003418262000314565b9050919050565b620003538162000334565b82525050565b600060208201905062000370600083018462000348565b92915050565b608051615b79620003996000396000818161063301526109be0152615b796000f3fe608060405260043610620000bb5760003560e01c80638546d002116200006d5780638546d002146200021c5780638da5cb5b1462000260578063a2021ea31462000290578063b4f0ad8b14620002be578063ea0354221462000302578063f2fde38b146200032257620000c3565b8063176b9b7514620001005780633d26bb671462000144578063476343ee14620001745780634773a6a9146200018e57806352cb7e0a14620001be578063715018a6146200020257620000c3565b36620000c357005b6040517f08c379a0000000000000000000000000000000000000000000000000000000008152600401620000f79062001225565b60405180910390fd5b3480156200010d57600080fd5b506200012c6004803603810190620001269190620012bf565b62000350565b6040516200013b919062001368565b60405180910390f35b3480156200015157600080fd5b506200015c62000562565b6040516200016b919062001368565b60405180910390f35b3480156200018157600080fd5b506200018c62000568565b005b3480156200019b57600080fd5b50620001a662000631565b604051620001b5919062001368565b60405180910390f35b348015620001cb57600080fd5b50620001ea6004803603810190620001e491906200141b565b62000655565b604051620001f9919062001473565b60405180910390f35b3480156200020f57600080fd5b506200021a62000697565b005b3480156200022957600080fd5b5062000248600480360381019062000242919062001490565b620006af565b604051620002579190620014df565b60405180910390f35b3480156200026d57600080fd5b5062000278620006cf565b60405162000287919062001473565b60405180910390f35b3480156200029d57600080fd5b50620002bc6004803603810190620002b691906200152d565b620006f8565b005b348015620002cb57600080fd5b50620002ea6004803603810190620002e4919062001490565b620007e3565b604051620002f9919062001368565b60405180910390f35b6200032060048036038101906200031a91906200141b565b620007fb565b005b3480156200032f57600080fd5b506200034e600480360381019062000348919062001589565b62000cdb565b005b600080858585856200036162000d68565b306040516200037090620011b6565b62000381969594939291906200160e565b604051809103906000f0801580156200039e573d6000803e3d6000fd5b509050806003600060025481526020019081526020016000206000620003c362000d68565b73ffffffffffffffffffffffffffffffffffffffff1673ffffffffffffffffffffffffffffffffffffffff16815260200190815260200160002060006101000a81548173ffffffffffffffffffffffffffffffffffffffff021916908373ffffffffffffffffffffffffffffffffffffffff1602179055506200044562000d68565b600460008373ffffffffffffffffffffffffffffffffffffffff1673ffffffffffffffffffffffffffffffffffffffff16815260200190815260200160002060006101000a81548173ffffffffffffffffffffffffffffffffffffffff021916908373ffffffffffffffffffffffffffffffffffffffff16021790555060026000815480929190620004d7906200169c565b9190505550620004e662000d68565b73ffffffffffffffffffffffffffffffffffffffff1660016002546200050d9190620016e9565b7fee4d8764b6b7ece682a156063b005e7b6669f9677a19d90b218fc10632eb7ab1836040516200053e919062001473565b60405180910390a36001600254620005579190620016e9565b915050949350505050565b60025481565b6200057262000d70565b60006200057e620006cf565b73ffffffffffffffffffffffffffffffffffffffff1647604051620005a39062001759565b60006040518083038185875af1925050503d8060008114620005e2576040519150601f19603f3d011682016040523d82523d6000602084013e620005e7565b606091505b50509050806200062e576040517f08c379a00000000000000000000000000000000000000000000000000000000081526004016200062590620017c0565b60405180910390fd5b50565b7f000000000000000000000000000000000000000000000000000000000000000081565b60036020528160005260406000206020528060005260406000206000915091509054906101000a900473ffffffffffffffffffffffffffffffffffffffff1681565b620006a162000d70565b620006ad600062000e00565b565b60056020528060005260406000206000915054906101000a900460ff1681565b60008060009054906101000a900473ffffffffffffffffffffffffffffffffffffffff16905090565b620007038362000ec4565b806005600085815260200190815260200160002060006101000a81548160ff0219169083151502179055506000600660008581526020019081526020016000205490508260066000868152602001908152602001600020819055508281857fa9bd118d794b0190f02605a82a7c3b133b6cedc78d7962093c669da0c3a21f9560405160405180910390a48115156200079a62000d68565b73ffffffffffffffffffffffffffffffffffffffff16857f864533a978fbe33caeb7b4e63fd761c5f96aba469edb26dd6a869a54960b297f60405160405180910390a450505050565b60066020528060005260406000206000915090505481565b620008056200108b565b60006003600084815260200190815260200160002060008373ffffffffffffffffffffffffffffffffffffffff1673ffffffffffffffffffffffffffffffffffffffff16815260200190815260200160002060009054906101000a900473ffffffffffffffffffffffffffffffffffffffff169050620008868383620010d2565b60006006600085815260200190815260200160002054905080341015620008e85734816040517f1fbeaea0000000000000000000000000000000000000000000000000000000008152600401620008df929190620017e2565b60405180910390fd5b60008273ffffffffffffffffffffffffffffffffffffffff166370a08231856040518263ffffffff1660e01b815260040162000925919062001473565b602060405180830381865afa15801562000943573d6000803e3d6000fd5b505050506040513d601f19601f8201168201806040525081019062000969919062001826565b905060008103620009b1576040517f08c379a0000000000000000000000000000000000000000000000000000000008152600401620009a890620018a8565b60405180910390fd5b6000670de0b6b3a76400007f000000000000000000000000000000000000000000000000000000000000000034620009ea9190620018ca565b620009f6919062001944565b90506000813462000a089190620016e9565b90508460036000898152602001908152602001600020600062000a2a62000d68565b73ffffffffffffffffffffffffffffffffffffffff1673ffffffffffffffffffffffffffffffffffffffff16815260200190815260200160002060006101000a81548173ffffffffffffffffffffffffffffffffffffffff021916908373ffffffffffffffffffffffffffffffffffffffff1602179055506003600088815260200190815260200160002060008773ffffffffffffffffffffffffffffffffffffffff1673ffffffffffffffffffffffffffffffffffffffff16815260200190815260200160002060006101000a81549073ffffffffffffffffffffffffffffffffffffffff021916905562000b1f62000d68565b600460008773ffffffffffffffffffffffffffffffffffffffff1673ffffffffffffffffffffffffffffffffffffffff16815260200190815260200160002060006101000a81548173ffffffffffffffffffffffffffffffffffffffff021916908373ffffffffffffffffffffffffffffffffffffffff16021790555060008673ffffffffffffffffffffffffffffffffffffffff168260405162000bc49062001759565b60006040518083038185875af1925050503d806000811462000c03576040519150601f19603f3d011682016040523d82523d6000602084013e62000c08565b606091505b505090508062000c4f576040517f08c379a000000000000000000000000000000000000000000000000000000000815260040162000c4690620019cc565b60405180910390fd5b8573ffffffffffffffffffffffffffffffffffffffff1663bf281b7b62000c7562000d68565b6040518263ffffffff1660e01b815260040162000c93919062001473565b600060405180830381600087803b15801562000cae57600080fd5b505af115801562000cc3573d6000803e3d6000fd5b5050505050505050505062000cd7620011ad565b5050565b62000ce562000d70565b600073ffffffffffffffffffffffffffffffffffffffff168173ffffffffffffffffffffffffffffffffffffffff160362000d5a5760006040517f1e4fbdf700000000000000000000000000000000000000000000000000000000815260040162000d51919062001473565b60405180910390fd5b62000d658162000e00565b50565b600033905090565b62000d7a62000d68565b73ffffffffffffffffffffffffffffffffffffffff1662000d9a620006cf565b73ffffffffffffffffffffffffffffffffffffffff161462000dfe5762000dc062000d68565b6040517f118cdaa700000000000000000000000000000000000000000000000000000000815260040162000df5919062001473565b60405180910390fd5b565b60008060009054906101000a900473ffffffffffffffffffffffffffffffffffffffff169050816000806101000a81548173ffffffffffffffffffffffffffffffffffffffff021916908373ffffffffffffffffffffffffffffffffffffffff1602179055508173ffffffffffffffffffffffffffffffffffffffff168173ffffffffffffffffffffffffffffffffffffffff167f8be0079c531659141344cd1fd0a4f28419497f9722a3daafe3b4186f6b6457e060405160405180910390a35050565b600060036000838152602001908152602001600020600062000ee562000d68565b73ffffffffffffffffffffffffffffffffffffffff1673ffffffffffffffffffffffffffffffffffffffff16815260200190815260200160002060009054906101000a900473ffffffffffffffffffffffffffffffffffffffff169050600460008273ffffffffffffffffffffffffffffffffffffffff1673ffffffffffffffffffffffffffffffffffffffff16815260200190815260200160002060009054906101000a900473ffffffffffffffffffffffffffffffffffffffff1673ffffffffffffffffffffffffffffffffffffffff1662000fc262000d68565b73ffffffffffffffffffffffffffffffffffffffff1614620010875762000fe862000d68565b600460008373ffffffffffffffffffffffffffffffffffffffff1673ffffffffffffffffffffffffffffffffffffffff16815260200190815260200160002060009054906101000a900473ffffffffffffffffffffffffffffffffffffffff166040517ff3b18f550000000000000000000000000000000000000000000000000000000081526004016200107e929190620019ee565b60405180910390fd5b5050565b600260015403620010c8576040517f3ee5aeb500000000000000000000000000000000000000000000000000000000815260040160405180910390fd5b6002600181905550565b6005600083815260200190815260200160002060009054906101000a900460ff16620011a957816003600084815260200190815260200160002060008373ffffffffffffffffffffffffffffffffffffffff1673ffffffffffffffffffffffffffffffffffffffff16815260200190815260200160002060009054906101000a900473ffffffffffffffffffffffffffffffffffffffff166040517f0bc6e689000000000000000000000000000000000000000000000000000000008152600401620011a092919062001a1b565b60405180910390fd5b5050565b60018081905550565b6140fb8062001a4983390190565b600082825260208201905092915050565b7f496e76616c69642066756e6374696f6e2063616c6c0000000000000000000000600082015250565b60006200120d601583620011c4565b91506200121a82620011d5565b602082019050919050565b600060208201905081810360008301526200124081620011fe565b9050919050565b600080fd5b600080fd5b600080fd5b600080fd5b600080fd5b60008083601f84011262001279576200127862001251565b5b8235905067ffffffffffffffff81111562001299576200129862001256565b5b602083019150836001820283011115620012b857620012b76200125b565b5b9250929050565b60008060008060408587031215620012dc57620012db62001247565b5b600085013567ffffffffffffffff811115620012fd57620012fc6200124c565b5b6200130b8782880162001260565b9450945050602085013567ffffffffffffffff8111156200133157620013306200124c565b5b6200133f8782880162001260565b925092505092959194509250565b6000819050919050565b62001362816200134d565b82525050565b60006020820190506200137f600083018462001357565b92915050565b62001390816200134d565b81146200139c57600080fd5b50565b600081359050620013b08162001385565b92915050565b600073ffffffffffffffffffffffffffffffffffffffff82169050919050565b6000620013e382620013b6565b9050919050565b620013f581620013d6565b81146200140157600080fd5b50565b6000813590506200141581620013ea565b92915050565b6000806040838503121562001435576200143462001247565b5b600062001445858286016200139f565b9250506020620014588582860162001404565b9150509250929050565b6200146d81620013d6565b82525050565b60006020820190506200148a600083018462001462565b92915050565b600060208284031215620014a957620014a862001247565b5b6000620014b9848285016200139f565b91505092915050565b60008115159050919050565b620014d981620014c2565b82525050565b6000602082019050620014f66000830184620014ce565b92915050565b6200150781620014c2565b81146200151357600080fd5b50565b6000813590506200152781620014fc565b92915050565b60008060006060848603121562001549576200154862001247565b5b600062001559868287016200139f565b93505060206200156c868287016200139f565b92505060406200157f8682870162001516565b9150509250925092565b600060208284031215620015a257620015a162001247565b5b6000620015b28482850162001404565b91505092915050565b82818337600083830152505050565b6000601f19601f8301169050919050565b6000620015e98385620011c4565b9350620015f8838584620015bb565b6200160383620015ca565b840190509392505050565b600060808201905081810360008301526200162b81888a620015db565b9050818103602083015262001642818688620015db565b905062001653604083018562001462565b62001662606083018462001462565b979650505050505050565b7f4e487b7100000000000000000000000000000000000000000000000000000000600052601160045260246000fd5b6000620016a9826200134d565b91507fffffffffffffffffffffffffffffffffffffffffffffffffffffffffffffffff8203620016de57620016dd6200166d565b5b600182019050919050565b6000620016f6826200134d565b915062001703836200134d565b92508282039050818111156200171e576200171d6200166d565b5b92915050565b600081905092915050565b50565b60006200174160008362001724565b91506200174e826200172f565b600082019050919050565b6000620017668262001732565b9150819050919050565b7f7769746864726177206661696c65640000000000000000000000000000000000600082015250565b6000620017a8600f83620011c4565b9150620017b58262001770565b602082019050919050565b60006020820190508181036000830152620017db8162001799565b9050919050565b6000604082019050620017f9600083018562001357565b62001808602083018462001357565b9392505050565b600081519050620018208162001385565b92915050565b6000602082840312156200183f576200183e62001247565b5b60006200184f848285016200180f565b91505092915050565b7f53656c6c657220686173206e6f20746f6b656e73000000000000000000000000600082015250565b600062001890601483620011c4565b91506200189d8262001858565b602082019050919050565b60006020820190508181036000830152620018c38162001881565b9050919050565b6000620018d7826200134d565b9150620018e4836200134d565b9250828202620018f4816200134d565b915082820484148315176200190e576200190d6200166d565b5b5092915050565b7f4e487b7100000000000000000000000000000000000000000000000000000000600052601260045260246000fd5b600062001951826200134d565b91506200195e836200134d565b92508262001971576200197062001915565b5b828204905092915050565b7f53656c6c6572207061796d656e74206661696c65640000000000000000000000600082015250565b6000620019b4601583620011c4565b9150620019c1826200197c565b602082019050919050565b60006020820190508181036000830152620019e781620019a5565b9050919050565b600060408201905062001a05600083018562001462565b62001a14602083018462001462565b9392505050565b600060408201905062001a32600083018562001357565b62001a41602083018462001462565b939250505056fe60806040526040518060400160405280600a81526020017f426f617264417065732f00000000000000000000000000000000000000000000815250600990816200004a9190620004be565b503480156200005857600080fd5b50604051620040fb380380620040fb83398181016040528101906200007e91906200076e565b838383600073ffffffffffffffffffffffffffffffffffffffff168173ffffffffffffffffffffffffffffffffffffffff1603620000f65760006040517f1e4fbdf7000000000000000000000000000000000000000000000000000000008152600401620000ed91906200082f565b60405180910390fd5b62000107816200018060201b60201c565b50600180819055508160029081620001209190620004be565b508060039081620001329190620004be565b50505080600a60006101000a81548173ffffffffffffffffffffffffffffffffffffffff021916908373ffffffffffffffffffffffffffffffffffffffff160217905550505050506200084c565b60008060009054906101000a900473ffffffffffffffffffffffffffffffffffffffff169050816000806101000a81548173ffffffffffffffffffffffffffffffffffffffff021916908373ffffffffffffffffffffffffffffffffffffffff1602179055508173ffffffffffffffffffffffffffffffffffffffff168173ffffffffffffffffffffffffffffffffffffffff167f8be0079c531659141344cd1fd0a4f28419497f9722a3daafe3b4186f6b6457e060405160405180910390a35050565b600081519050919050565b7f4e487b7100000000000000000000000000000000000000000000000000000000600052604160045260246000fd5b7f4e487b7100000000000000000000000000000000000000000000000000000000600052602260045260246000fd5b60006002820490506001821680620002c657607f821691505b602082108103620002dc57620002db6200027e565b5b50919050565b60008190508160005260206000209050919050565b60006020601f8301049050919050565b600082821b905092915050565b600060088302620003467fffffffffffffffffffffffffffffffffffffffffffffffffffffffffffffffff8262000307565b62000352868362000307565b95508019841693508086168417925050509392505050565b6000819050919050565b6000819050919050565b60006200039f6200039962000393846200036a565b62000374565b6200036a565b9050919050565b6000819050919050565b620003bb836200037e565b620003d3620003ca82620003a6565b84845462000314565b825550505050565b600090565b620003ea620003db565b620003f7818484620003b0565b505050565b5b818110156200041f5762000413600082620003e0565b600181019050620003fd565b5050565b601f8211156200046e576200043881620002e2565b6200044384620002f7565b8101602085101562000453578190505b6200046b6200046285620002f7565b830182620003fc565b50505b505050565b600082821c905092915050565b6000620004936000198460080262000473565b1980831691505092915050565b6000620004ae838362000480565b9150826002028217905092915050565b620004c98262000244565b67ffffffffffffffff811115620004e557620004e46200024f565b5b620004f18254620002ad565b620004fe82828562000423565b600060209050601f83116001811462000536576000841562000521578287015190505b6200052d8582620004a0565b8655506200059d565b601f1984166200054686620002e2565b60005b82811015620005705784890151825560018201915060208501945060208101905062000549565b868310156200059057848901516200058c601f89168262000480565b8355505b6001600288020188555050505b505050505050565b6000604051905090565b600080fd5b600080fd5b600080fd5b600080fd5b6000601f19601f8301169050919050565b620005df82620005c3565b810181811067ffffffffffffffff821117156200060157620006006200024f565b5b80604052505050565b600062000616620005a5565b9050620006248282620005d4565b919050565b600067ffffffffffffffff8211156200064757620006466200024f565b5b6200065282620005c3565b9050602081019050919050565b60005b838110156200067f57808201518184015260208101905062000662565b60008484015250505050565b6000620006a26200069c8462000629565b6200060a565b905082815260208101848484011115620006c157620006c0620005be565b5b620006ce8482856200065f565b509392505050565b600082601f830112620006ee57620006ed620005b9565b5b8151620007008482602086016200068b565b91505092915050565b600073ffffffffffffffffffffffffffffffffffffffff82169050919050565b6000620007368262000709565b9050919050565b620007488162000729565b81146200075457600080fd5b50565b60008151905062000768816200073d565b92915050565b600080600080608085870312156200078b576200078a620005af565b5b600085015167ffffffffffffffff811115620007ac57620007ab620005b4565b5b620007ba87828801620006d6565b945050602085015167ffffffffffffffff811115620007de57620007dd620005b4565b5b620007ec87828801620006d6565b9350506040620007ff8782880162000757565b9250506060620008128782880162000757565b91505092959194509250565b620008298162000729565b82525050565b60006020820190506200084660008301846200081e565b92915050565b61389f806200085c6000396000f3fe6080604052600436106101bb5760003560e01c8063747ceb23116100ec578063bf0c8c161161008a578063d4ddce8a11610064578063d4ddce8a1461066d578063d96a094a146106aa578063e985e9c5146106c6578063f2fde38b14610703576101c2565b8063bf0c8c16146105de578063bf281b7b14610607578063c87b56dd14610630576101c2565b8063931688cb116100c6578063931688cb1461053857806395d89b4114610561578063a22cb4651461058c578063b88d4fde146105b5576101c2565b8063747ceb23146104a7578063897925f5146104e45780638da5cb5b1461050d576101c2565b806323b872dd1161015957806365e9e0d01161013357806365e9e0d0146103ff5780636c0360eb1461042857806370a0823114610453578063715018a614610490576101c2565b806323b872dd1461037057806342842e0e146103995780636352211e146103c2576101c2565b8063081812fc11610195578063081812fc146102a2578063095ea7b3146102df578063150b7a021461030857806317d70f7c14610345576101c2565b806301ffc9a7146101fd578063056b01ce1461023a57806306fdde0314610277576101c2565b366101c257005b6040517f08c379a00000000000000000000000000000000000000000000000000000000081526004016101f4906127c0565b60405180910390fd5b34801561020957600080fd5b50610224600480360381019061021f919061284c565b61072c565b6040516102319190612894565b60405180910390f35b34801561024657600080fd5b50610261600480360381019061025c9190612a2b565b61080e565b60405161026e9190612a96565b60405180910390f35b34801561028357600080fd5b5061028c6108c5565b6040516102999190612b1f565b60405180910390f35b3480156102ae57600080fd5b506102c960048036038101906102c49190612b41565b610957565b6040516102d69190612baf565b60405180910390f35b3480156102eb57600080fd5b5061030660048036038101906103019190612bf6565b610973565b005b34801561031457600080fd5b5061032f600480360381019061032a9190612c96565b610989565b60405161033c9190612d2d565b60405180910390f35b34801561035157600080fd5b5061035a61099e565b6040516103679190612a96565b60405180910390f35b34801561037c57600080fd5b5061039760048036038101906103929190612d48565b6109a4565b005b3480156103a557600080fd5b506103c060048036038101906103bb9190612d48565b610aa6565b005b3480156103ce57600080fd5b506103e960048036038101906103e49190612b41565b610ac6565b6040516103f69190612baf565b60405180910390f35b34801561040b57600080fd5b5061042660048036038101906104219190612dc7565b610ad8565b005b34801561043457600080fd5b5061043d610b4b565b60405161044a9190612b1f565b60405180910390f35b34801561045f57600080fd5b5061047a60048036038101906104759190612e07565b610bd9565b6040516104879190612a96565b60405180910390f35b34801561049c57600080fd5b506104a5610c93565b005b3480156104b357600080fd5b506104ce60048036038101906104c99190612a2b565b610ca7565b6040516104db9190612a96565b60405180910390f35b3480156104f057600080fd5b5061050b60048036038101906105069190612e34565b610d77565b005b34801561051957600080fd5b50610522610e78565b60405161052f9190612baf565b60405180910390f35b34801561054457600080fd5b5061055f600480360381019061055a9190612e74565b610ea1565b005b34801561056d57600080fd5b50610576610fed565b6040516105839190612b1f565b60405180910390f35b34801561059857600080fd5b506105b360048036038101906105ae9190612ebd565b61107f565b005b3480156105c157600080fd5b506105dc60048036038101906105d79190612f9e565b611095565b005b3480156105ea57600080fd5b5061060560048036038101906106009190612dc7565b6110ba565b005b34801561061357600080fd5b5061062e60048036038101906106299190612e07565b6111d5565b005b34801561063c57600080fd5b5061065760048036038101906106529190612b41565b6112fc565b6040516106649190612b1f565b60405180910390f35b34801561067957600080fd5b50610694600480360381019061068f9190612b41565b611370565b6040516106a19190612a96565b60405180910390f35b6106c460048036038101906106bf9190612b41565b611388565b005b3480156106d257600080fd5b506106ed60048036038101906106e89190613021565b6117b8565b6040516106fa9190612894565b60405180910390f35b34801561070f57600080fd5b5061072a60048036038101906107259190612e07565b61184c565b005b60007f80ac58cd000000000000000000000000000000000000000000000000000000007bffffffffffffffffffffffffffffffffffffffffffffffffffffffff1916827bffffffffffffffffffffffffffffffffffffffffffffffffffffffff191614806107f757507f5b5e139f000000000000000000000000000000000000000000000000000000007bffffffffffffffffffffffffffffffffffffffffffffffffffffffff1916827bffffffffffffffffffffffffffffffffffffffffffffffffffffffff1916145b806108075750610806826118d2565b5b9050919050565b600061081861193c565b82600081510361085f57806040517f1a21eb2f0000000000000000000000000000000000000000000000000000000081526004016108569190612b1f565b60405180910390fd5b60006008549050610877610871610e78565b826119c3565b84600b60008381526020019081526020016000209081610897919061326d565b506108a28185610d77565b600860008154809291906108b59061336e565b9190505550809250505092915050565b6060600280546108d490613090565b80601f016020809104026020016040519081016040528092919081815260200182805461090090613090565b801561094d5780601f106109225761010080835404028352916020019161094d565b820191906000526020600020905b81548152906001019060200180831161093057829003601f168201915b5050505050905090565b6000610962826119e1565b5061096c82611a69565b9050919050565b6109858282610980611aa6565b611aae565b5050565b600063150b7a0260e01b905095945050505050565b60085481565b600073ffffffffffffffffffffffffffffffffffffffff168273ffffffffffffffffffffffffffffffffffffffff1603610a165760006040517f64a0ae92000000000000000000000000000000000000000000000000000000008152600401610a0d9190612baf565b60405180910390fd5b6000610a2a8383610a25611aa6565b611ac0565b90508373ffffffffffffffffffffffffffffffffffffffff168173ffffffffffffffffffffffffffffffffffffffff1614610aa0578382826040517f64283d7b000000000000000000000000000000000000000000000000000000008152600401610a97939291906133b6565b60405180910390fd5b50505050565b610ac183838360405180602001604052806000815250611095565b505050565b6000610ad1826119e1565b9050919050565b610ae061193c565b81610aea816119e1565b5081600d600085815260200190815260200160002060006101000a81548160ff021916908315150217905550811515837fa5ea128b867a8626afec026825b77d52c0891b9260ddbce80063c417e1ff2a2160405160405180910390a3505050565b60098054610b5890613090565b80601f0160208091040260200160405190810160405280929190818152602001828054610b8490613090565b8015610bd15780601f10610ba657610100808354040283529160200191610bd1565b820191906000526020600020905b815481529060010190602001808311610bb457829003601f168201915b505050505081565b60008073ffffffffffffffffffffffffffffffffffffffff168273ffffffffffffffffffffffffffffffffffffffff1603610c4c5760006040517f89c62b64000000000000000000000000000000000000000000000000000000008152600401610c439190612baf565b60405180910390fd5b600560008373ffffffffffffffffffffffffffffffffffffffff1673ffffffffffffffffffffffffffffffffffffffff168152602001908152602001600020549050919050565b610c9b61193c565b610ca56000611cda565b565b6000610cb161193c565b826000815103610cf857806040517f1a21eb2f000000000000000000000000000000000000000000000000000000008152600401610cef9190612b1f565b60405180910390fd5b610d0b610d03610e78565b6008546119c3565b83600b600060085481526020019081526020016000209081610d2d919061326d565b50610d3a60085484610d77565b610d476008546001610ad8565b60086000815480929190610d5a9061336e565b91905055506001600854610d6e91906133ed565b91505092915050565b81610d81816119e1565b50826000610d8e82611d9e565b9050610d98611aa6565b73ffffffffffffffffffffffffffffffffffffffff168173ffffffffffffffffffffffffffffffffffffffff1614610e1257610dd2611aa6565b82826040517f64283d7b000000000000000000000000000000000000000000000000000000008152600401610e09939291906133b6565b60405180910390fd5b6000600c600087815260200190815260200160002054905084600c6000888152602001908152602001600020819055508481877ed4fe314618b73a96886b87817a53a5ed51433b0234c85a5e9dafe2cb7b884260405160405180910390a4505050505050565b60008060009054906101000a900473ffffffffffffffffffffffffffffffffffffffff16905090565b610ea961193c565b806000815103610ef057806040517f1a21eb2f000000000000000000000000000000000000000000000000000000008152600401610ee79190612b1f565b60405180910390fd5b600060098054610eff90613090565b80601f0160208091040260200160405190810160405280929190818152602001828054610f2b90613090565b8015610f785780601f10610f4d57610100808354040283529160200191610f78565b820191906000526020600020905b815481529060010190602001808311610f5b57829003601f168201915b505050505090508260099081610f8e919061326d565b506009604051610f9e91906134af565b604051809103902081604051610fb491906134f7565b60405180910390207f309b29ded109b9e28fb9885757b3e0096eb75c51d23aa4635d68bcd569f6adc160405160405180910390a3505050565b606060038054610ffc90613090565b80601f016020809104026020016040519081016040528092919081815260200182805461102890613090565b80156110755780601f1061104a57610100808354040283529160200191611075565b820191906000526020600020905b81548152906001019060200180831161105857829003601f168201915b5050505050905090565b61109161108a611aa6565b8383611ddb565b5050565b6110a08484846109a4565b6110b46110ab611aa6565b85858585611f4a565b50505050565b816110c4816119e1565b508260006110d182611d9e565b90506110db611aa6565b73ffffffffffffffffffffffffffffffffffffffff168173ffffffffffffffffffffffffffffffffffffffff161461115557611115611aa6565b82826040517f64283d7b00000000000000000000000000000000000000000000000000000000815260040161114c939291906133b6565b60405180910390fd5b83600e600087815260200190815260200160002060006101000a81548160ff0219169083151502179055508315158561118c611aa6565b73ffffffffffffffffffffffffffffffffffffffff167fb9f11113e89d33df2286186eb4b0d56eae94c6fb5f772b5df79fcfa01ecc891860405160405180910390a45050505050565b600a60009054906101000a900473ffffffffffffffffffffffffffffffffffffffff1673ffffffffffffffffffffffffffffffffffffffff16611216611aa6565b73ffffffffffffffffffffffffffffffffffffffff161461127557611239611aa6565b6040517fcc9529df00000000000000000000000000000000000000000000000000000000815260040161126c9190612baf565b60405180910390fd5b600061127f610e78565b90506000600854905060005b818110156112ed578273ffffffffffffffffffffffffffffffffffffffff166112b382610ac6565b73ffffffffffffffffffffffffffffffffffffffff16036112da576112d98385836120fb565b5b80806112e59061336e565b91505061128b565b506112f783611cda565b505050565b6060611307826119e1565b5060006009805461131790613090565b9050116113335760405180602001604052806000815250611369565b6009600b600084815260200190815260200160002060405160200161135992919061350e565b6040516020818303038152906040525b9050919050565b600c6020528060005260406000206000915090505481565b61139061211b565b8061139a816119e1565b506000600c6000848152602001908152602001600020549050600e600084815260200190815260200160002060009054906101000a900460ff1661141557826040517fcb5f921000000000000000000000000000000000000000000000000000000000815260040161140c9190612a96565b60405180910390fd5b8034101561145c5734816040517f1fbeaea0000000000000000000000000000000000000000000000000000000008152600401611453929190613532565b60405180910390fd5b600061146784610ac6565b90506000600a60009054906101000a900473ffffffffffffffffffffffffffffffffffffffff1673ffffffffffffffffffffffffffffffffffffffff16634773a6a96040518163ffffffff1660e01b8152600401602060405180830381865afa1580156114d8573d6000803e3d6000fd5b505050506040513d601f19601f820116820180604052508101906114fc9190613570565b90506000670de0b6b3a76400008234611515919061359d565b61151f919061360e565b90506000813461152f91906133ed565b90506000600e600089815260200190815260200160002060006101000a81548160ff021916908315150217905550600015158761156a611aa6565b73ffffffffffffffffffffffffffffffffffffffff167fb9f11113e89d33df2286186eb4b0d56eae94c6fb5f772b5df79fcfa01ecc891860405160405180910390a46115be846115b8611aa6565b896120fb565b60008473ffffffffffffffffffffffffffffffffffffffff16826040516115e490613670565b60006040518083038185875af1925050503d8060008114611621576040519150601f19603f3d011682016040523d82523d6000602084013e611626565b606091505b505090508061166a576040517f08c379a0000000000000000000000000000000000000000000000000000000008152600401611661906136d1565b60405180910390fd5b6000600a60009054906101000a900473ffffffffffffffffffffffffffffffffffffffff1673ffffffffffffffffffffffffffffffffffffffff16846040516116b290613670565b60006040518083038185875af1925050503d80600081146116ef576040519150601f19603f3d011682016040523d82523d6000602084013e6116f4565b606091505b5050905080611738576040517f08c379a000000000000000000000000000000000000000000000000000000000815260040161172f9061373d565b60405180910390fd5b888673ffffffffffffffffffffffffffffffffffffffff16611758611aa6565b73ffffffffffffffffffffffffffffffffffffffff167f9fa236593f411affe147142a606176190ea6b18be0643332f081175cfe608b6b8a60405161179d9190612a96565b60405180910390a450505050505050506117b5612161565b50565b6000600760008473ffffffffffffffffffffffffffffffffffffffff1673ffffffffffffffffffffffffffffffffffffffff16815260200190815260200160002060008373ffffffffffffffffffffffffffffffffffffffff1673ffffffffffffffffffffffffffffffffffffffff16815260200190815260200160002060009054906101000a900460ff16905092915050565b61185461193c565b600073ffffffffffffffffffffffffffffffffffffffff168173ffffffffffffffffffffffffffffffffffffffff16036118c65760006040517f1e4fbdf70000000000000000000000000000000000000000000000000000000081526004016118bd9190612baf565b60405180910390fd5b6118cf81611cda565b50565b60007f01ffc9a7000000000000000000000000000000000000000000000000000000007bffffffffffffffffffffffffffffffffffffffffffffffffffffffff1916827bffffffffffffffffffffffffffffffffffffffffffffffffffffffff1916149050919050565b611944611aa6565b73ffffffffffffffffffffffffffffffffffffffff16611962610e78565b73ffffffffffffffffffffffffffffffffffffffff16146119c157611985611aa6565b6040517f118cdaa70000000000000000000000000000000000000000000000000000000081526004016119b89190612baf565b60405180910390fd5b565b6119dd82826040518060200160405280600081525061216a565b5050565b6000806119ed83611d9e565b9050600073ffffffffffffffffffffffffffffffffffffffff168173ffffffffffffffffffffffffffffffffffffffff1603611a6057826040517f7e273289000000000000000000000000000000000000000000000000000000008152600401611a579190612a96565b60405180910390fd5b80915050919050565b60006006600083815260200190815260200160002060009054906101000a900473ffffffffffffffffffffffffffffffffffffffff169050919050565b600033905090565b611abb838383600161218e565b505050565b600080611acc84611d9e565b9050600073ffffffffffffffffffffffffffffffffffffffff168373ffffffffffffffffffffffffffffffffffffffff1614611b0e57611b0d818486612353565b5b600073ffffffffffffffffffffffffffffffffffffffff168173ffffffffffffffffffffffffffffffffffffffff1614611b9f57611b5060008560008061218e565b6001600560008373ffffffffffffffffffffffffffffffffffffffff1673ffffffffffffffffffffffffffffffffffffffff168152602001908152602001600020600082825403925050819055505b600073ffffffffffffffffffffffffffffffffffffffff168573ffffffffffffffffffffffffffffffffffffffff1614611c22576001600560008773ffffffffffffffffffffffffffffffffffffffff1673ffffffffffffffffffffffffffffffffffffffff168152602001908152602001600020600082825401925050819055505b846004600086815260200190815260200160002060006101000a81548173ffffffffffffffffffffffffffffffffffffffff021916908373ffffffffffffffffffffffffffffffffffffffff160217905550838573ffffffffffffffffffffffffffffffffffffffff168273ffffffffffffffffffffffffffffffffffffffff167fddf252ad1be2c89b69c2b068fc378daa952ba7f163c4a11628f55a4df523b3ef60405160405180910390a4809150509392505050565b60008060009054906101000a900473ffffffffffffffffffffffffffffffffffffffff169050816000806101000a81548173ffffffffffffffffffffffffffffffffffffffff021916908373ffffffffffffffffffffffffffffffffffffffff1602179055508173ffffffffffffffffffffffffffffffffffffffff168173ffffffffffffffffffffffffffffffffffffffff167f8be0079c531659141344cd1fd0a4f28419497f9722a3daafe3b4186f6b6457e060405160405180910390a35050565b60006004600083815260200190815260200160002060009054906101000a900473ffffffffffffffffffffffffffffffffffffffff169050919050565b600073ffffffffffffffffffffffffffffffffffffffff168273ffffffffffffffffffffffffffffffffffffffff1603611e4c57816040517f5b08ba18000000000000000000000000000000000000000000000000000000008152600401611e439190612baf565b60405180910390fd5b80600760008573ffffffffffffffffffffffffffffffffffffffff1673ffffffffffffffffffffffffffffffffffffffff16815260200190815260200160002060008473ffffffffffffffffffffffffffffffffffffffff1673ffffffffffffffffffffffffffffffffffffffff16815260200190815260200160002060006101000a81548160ff0219169083151502179055508173ffffffffffffffffffffffffffffffffffffffff168373ffffffffffffffffffffffffffffffffffffffff167f17307eab39ab6107e8899845ad3d59bd9653f200f220920489ca2b5937696c3183604051611f3d9190612894565b60405180910390a3505050565b60008373ffffffffffffffffffffffffffffffffffffffff163b11156120f4578273ffffffffffffffffffffffffffffffffffffffff1663150b7a02868685856040518563ffffffff1660e01b8152600401611fa994939291906137b2565b6020604051808303816000875af1925050508015611fe557506040513d601f19601f82011682018060405250810190611fe29190613813565b60015b612069573d8060008114612015576040519150601f19603f3d011682016040523d82523d6000602084013e61201a565b606091505b50600081510361206157836040517f64a0ae920000000000000000000000000000000000000000000000000000000081526004016120589190612baf565b60405180910390fd5b805160208201fd5b63150b7a0260e01b7bffffffffffffffffffffffffffffffffffffffffffffffffffffffff1916817bffffffffffffffffffffffffffffffffffffffffffffffffffffffff1916146120f257836040517f64a0ae920000000000000000000000000000000000000000000000000000000081526004016120e99190612baf565b60405180910390fd5b505b5050505050565b61211683838360405180602001604052806000815250612417565b505050565b600260015403612157576040517f3ee5aeb500000000000000000000000000000000000000000000000000000000815260040160405180910390fd5b6002600181905550565b60018081905550565b612174838361243c565b61218961217f611aa6565b6000858585611f4a565b505050565b80806121c75750600073ffffffffffffffffffffffffffffffffffffffff168273ffffffffffffffffffffffffffffffffffffffff1614155b156122fb5760006121d7846119e1565b9050600073ffffffffffffffffffffffffffffffffffffffff168373ffffffffffffffffffffffffffffffffffffffff161415801561224257508273ffffffffffffffffffffffffffffffffffffffff168173ffffffffffffffffffffffffffffffffffffffff1614155b8015612255575061225381846117b8565b155b1561229757826040517fa9fbf51f00000000000000000000000000000000000000000000000000000000815260040161228e9190612baf565b60405180910390fd5b81156122f957838573ffffffffffffffffffffffffffffffffffffffff168273ffffffffffffffffffffffffffffffffffffffff167f8c5be1e5ebec7d5bd14f71427d1e84f3dd0314c0f7b2291e5b200ac8c7c3b92560405160405180910390a45b505b836006600085815260200190815260200160002060006101000a81548173ffffffffffffffffffffffffffffffffffffffff021916908373ffffffffffffffffffffffffffffffffffffffff16021790555050505050565b61235e838383612535565b61241257600073ffffffffffffffffffffffffffffffffffffffff168373ffffffffffffffffffffffffffffffffffffffff16036123d357806040517f7e2732890000000000000000000000000000000000000000000000000000000081526004016123ca9190612a96565b60405180910390fd5b81816040517f177e802f000000000000000000000000000000000000000000000000000000008152600401612409929190613840565b60405180910390fd5b505050565b6124228484846125f6565b61243661242d611aa6565b85858585611f4a565b50505050565b600073ffffffffffffffffffffffffffffffffffffffff168273ffffffffffffffffffffffffffffffffffffffff16036124ae5760006040517f64a0ae920000000000000000000000000000000000000000000000000000000081526004016124a59190612baf565b60405180910390fd5b60006124bc83836000611ac0565b9050600073ffffffffffffffffffffffffffffffffffffffff168173ffffffffffffffffffffffffffffffffffffffff16146125305760006040517f73c6ac6e0000000000000000000000000000000000000000000000000000000081526004016125279190612baf565b60405180910390fd5b505050565b60008073ffffffffffffffffffffffffffffffffffffffff168373ffffffffffffffffffffffffffffffffffffffff16141580156125ed57508273ffffffffffffffffffffffffffffffffffffffff168473ffffffffffffffffffffffffffffffffffffffff1614806125ae57506125ad84846117b8565b5b806125ec57508273ffffffffffffffffffffffffffffffffffffffff166125d483611a69565b73ffffffffffffffffffffffffffffffffffffffff16145b5b90509392505050565b600073ffffffffffffffffffffffffffffffffffffffff168273ffffffffffffffffffffffffffffffffffffffff16036126685760006040517f64a0ae9200000000000000000000000000000000000000000000000000000000815260040161265f9190612baf565b60405180910390fd5b600061267683836000611ac0565b9050600073ffffffffffffffffffffffffffffffffffffffff168173ffffffffffffffffffffffffffffffffffffffff16036126e957816040517f7e2732890000000000000000000000000000000000000000000000000000000081526004016126e09190612a96565b60405180910390fd5b8373ffffffffffffffffffffffffffffffffffffffff168173ffffffffffffffffffffffffffffffffffffffff161461275d578382826040517f64283d7b000000000000000000000000000000000000000000000000000000008152600401612754939291906133b6565b60405180910390fd5b50505050565b600082825260208201905092915050565b7f496e76616c69642066756e6374696f6e2063616c6c0000000000000000000000600082015250565b60006127aa601583612763565b91506127b582612774565b602082019050919050565b600060208201905081810360008301526127d98161279d565b9050919050565b6000604051905090565b600080fd5b600080fd5b60007fffffffff0000000000000000000000000000000000000000000000000000000082169050919050565b612829816127f4565b811461283457600080fd5b50565b60008135905061284681612820565b92915050565b600060208284031215612862576128616127ea565b5b600061287084828501612837565b91505092915050565b60008115159050919050565b61288e81612879565b82525050565b60006020820190506128a96000830184612885565b92915050565b600080fd5b600080fd5b6000601f19601f8301169050919050565b7f4e487b7100000000000000000000000000000000000000000000000000000000600052604160045260246000fd5b612902826128b9565b810181811067ffffffffffffffff82111715612921576129206128ca565b5b80604052505050565b60006129346127e0565b905061294082826128f9565b919050565b600067ffffffffffffffff8211156129605761295f6128ca565b5b612969826128b9565b9050602081019050919050565b82818337600083830152505050565b600061299861299384612945565b61292a565b9050828152602081018484840111156129b4576129b36128b4565b5b6129bf848285612976565b509392505050565b600082601f8301126129dc576129db6128af565b5b81356129ec848260208601612985565b91505092915050565b6000819050919050565b612a08816129f5565b8114612a1357600080fd5b50565b600081359050612a25816129ff565b92915050565b60008060408385031215612a4257612a416127ea565b5b600083013567ffffffffffffffff811115612a6057612a5f6127ef565b5b612a6c858286016129c7565b9250506020612a7d85828601612a16565b9150509250929050565b612a90816129f5565b82525050565b6000602082019050612aab6000830184612a87565b92915050565b600081519050919050565b60005b83811015612ada578082015181840152602081019050612abf565b60008484015250505050565b6000612af182612ab1565b612afb8185612763565b9350612b0b818560208601612abc565b612b14816128b9565b840191505092915050565b60006020820190508181036000830152612b398184612ae6565b905092915050565b600060208284031215612b5757612b566127ea565b5b6000612b6584828501612a16565b91505092915050565b600073ffffffffffffffffffffffffffffffffffffffff82169050919050565b6000612b9982612b6e565b9050919050565b612ba981612b8e565b82525050565b6000602082019050612bc46000830184612ba0565b92915050565b612bd381612b8e565b8114612bde57600080fd5b50565b600081359050612bf081612bca565b92915050565b60008060408385031215612c0d57612c0c6127ea565b5b6000612c1b85828601612be1565b9250506020612c2c85828601612a16565b9150509250929050565b600080fd5b600080fd5b60008083601f840112612c5657612c556128af565b5b8235905067ffffffffffffffff811115612c7357612c72612c36565b5b602083019150836001820283011115612c8f57612c8e612c3b565b5b9250929050565b600080600080600060808688031215612cb257612cb16127ea565b5b6000612cc088828901612be1565b9550506020612cd188828901612be1565b9450506040612ce288828901612a16565b935050606086013567ffffffffffffffff811115612d0357612d026127ef565b5b612d0f88828901612c40565b92509250509295509295909350565b612d27816127f4565b82525050565b6000602082019050612d426000830184612d1e565b92915050565b600080600060608486031215612d6157612d606127ea565b5b6000612d6f86828701612be1565b9350506020612d8086828701612be1565b9250506040612d9186828701612a16565b9150509250925092565b612da481612879565b8114612daf57600080fd5b50565b600081359050612dc181612d9b565b92915050565b60008060408385031215612dde57612ddd6127ea565b5b6000612dec85828601612a16565b9250506020612dfd85828601612db2565b9150509250929050565b600060208284031215612e1d57612e1c6127ea565b5b6000612e2b84828501612be1565b91505092915050565b60008060408385031215612e4b57612e4a6127ea565b5b6000612e5985828601612a16565b9250506020612e6a85828601612a16565b9150509250929050565b600060208284031215612e8a57612e896127ea565b5b600082013567ffffffffffffffff811115612ea857612ea76127ef565b5b612eb4848285016129c7565b91505092915050565b60008060408385031215612ed457612ed36127ea565b5b6000612ee285828601612be1565b9250506020612ef385828601612db2565b9150509250929050565b600067ffffffffffffffff821115612f1857612f176128ca565b5b612f21826128b9565b9050602081019050919050565b6000612f41612f3c84612efd565b61292a565b905082815260208101848484011115612f5d57612f5c6128b4565b5b612f68848285612976565b509392505050565b600082601f830112612f8557612f846128af565b5b8135612f95848260208601612f2e565b91505092915050565b60008060008060808587031215612fb857612fb76127ea565b5b6000612fc687828801612be1565b9450506020612fd787828801612be1565b9350506040612fe887828801612a16565b925050606085013567ffffffffffffffff811115613009576130086127ef565b5b61301587828801612f70565b91505092959194509250565b60008060408385031215613038576130376127ea565b5b600061304685828601612be1565b925050602061305785828601612be1565b9150509250929050565b7f4e487b7100000000000000000000000000000000000000000000000000000000600052602260045260246000fd5b600060028204905060018216806130a857607f821691505b6020821081036130bb576130ba613061565b5b50919050565b60008190508160005260206000209050919050565b60006020601f8301049050919050565b600082821b905092915050565b6000600883026131237fffffffffffffffffffffffffffffffffffffffffffffffffffffffffffffffff826130e6565b61312d86836130e6565b95508019841693508086168417925050509392505050565b6000819050919050565b600061316a613165613160846129f5565b613145565b6129f5565b9050919050565b6000819050919050565b6131848361314f565b61319861319082613171565b8484546130f3565b825550505050565b600090565b6131ad6131a0565b6131b881848461317b565b505050565b5b818110156131dc576131d16000826131a5565b6001810190506131be565b5050565b601f821115613221576131f2816130c1565b6131fb846130d6565b8101602085101561320a578190505b61321e613216856130d6565b8301826131bd565b50505b505050565b600082821c905092915050565b600061324460001984600802613226565b1980831691505092915050565b600061325d8383613233565b9150826002028217905092915050565b61327682612ab1565b67ffffffffffffffff81111561328f5761328e6128ca565b5b6132998254613090565b6132a48282856131e0565b600060209050601f8311600181146132d757600084156132c5578287015190505b6132cf8582613251565b865550613337565b601f1984166132e5866130c1565b60005b8281101561330d578489015182556001820191506020850194506020810190506132e8565b8683101561332a5784890151613326601f891682613233565b8355505b6001600288020188555050505b505050505050565b7f4e487b7100000000000000000000000000000000000000000000000000000000600052601160045260246000fd5b6000613379826129f5565b91507fffffffffffffffffffffffffffffffffffffffffffffffffffffffffffffffff82036133ab576133aa61333f565b5b600182019050919050565b60006060820190506133cb6000830186612ba0565b6133d86020830185612a87565b6133e56040830184612ba0565b949350505050565b60006133f8826129f5565b9150613403836129f5565b925082820390508181111561341b5761341a61333f565b5b92915050565b600081905092915050565b6000815461343981613090565b6134438186613421565b9450600182166000811461345e5760018114613473576134a6565b60ff19831686528115158202860193506134a6565b61347c856130c1565b60005b8381101561349e5781548189015260018201915060208101905061347f565b838801955050505b50505092915050565b60006134bb828461342c565b915081905092915050565b60006134d182612ab1565b6134db8185613421565b93506134eb818560208601612abc565b80840191505092915050565b600061350382846134c6565b915081905092915050565b600061351a828561342c565b9150613526828461342c565b91508190509392505050565b60006040820190506135476000830185612a87565b6135546020830184612a87565b9392505050565b60008151905061356a816129ff565b92915050565b600060208284031215613586576135856127ea565b5b60006135948482850161355b565b91505092915050565b60006135a8826129f5565b91506135b3836129f5565b92508282026135c1816129f5565b915082820484148315176135d8576135d761333f565b5b5092915050565b7f4e487b7100000000000000000000000000000000000000000000000000000000600052601260045260246000fd5b6000613619826129f5565b9150613624836129f5565b925082613634576136336135df565b5b828204905092915050565b600081905092915050565b50565b600061365a60008361363f565b91506136658261364a565b600082019050919050565b600061367b8261364d565b9150819050919050565b7f5061796d656e7420746f2073656c6c6572206661696c65640000000000000000600082015250565b60006136bb601883612763565b91506136c682613685565b602082019050919050565b600060208201905081810360008301526136ea816136ae565b9050919050565b7f5061796d656e74206f6620666565206661696c65640000000000000000000000600082015250565b6000613727601583612763565b9150613732826136f1565b602082019050919050565b600060208201905081810360008301526137568161371a565b9050919050565b600081519050919050565b600082825260208201905092915050565b60006137848261375d565b61378e8185613768565b935061379e818560208601612abc565b6137a7816128b9565b840191505092915050565b60006080820190506137c76000830187612ba0565b6137d46020830186612ba0565b6137e16040830185612a87565b81810360608301526137f38184613779565b905095945050505050565b60008151905061380d81612820565b92915050565b600060208284031215613829576138286127ea565b5b6000613837848285016137fe565b91505092915050565b60006040820190506138556000830185612ba0565b6138626020830184612a87565b939250505056fea264697066735822122029fa9f41e3107895be5a415d843647df2ec8f102764911c148bfbd98196936dc64736f6c63430008140033a26469706673582212208f6e4f8436b7119dbc32cd97809789c3fc5f622d922bb08ee66b03b1196aed1264736f6c63430008140033",
  "linkReferences": {},
  "deployedLinkReferences": {}
}