{
  "_format": "hh-sol-artifact-1",
  "contractName": "NFTsMarketplaceFactory",
  "sourceName": "onchain/NFTsMarketplaceFactory.sol",
  "abi": [
    {
      "inputs": [],
      "stateMutability": "nonpayable",
      "type": "constructor"
    },
    {
      "inputs": [
        {
          "internalType": "uint256",
          "name": "collectionId",
          "type": "uint256"
        },
        {
          "internalType": "address",
          "name": "collection",
          "type": "address"
        }
      ],
      "name": "CollectionIsNotForSale",
      "type": "error"
    },
    {
      "inputs": [
        {
          "internalType": "uint256",
          "name": "sent",
          "type": "uint256"
        },
        {
          "internalType": "uint256",
          "name": "required",
          "type": "uint256"
        }
      ],
      "name": "InsufficientETH",
      "type": "error"
    },
    {
      "inputs": [
        {
          "internalType": "address",
          "name": "owner",
          "type": "address"
        }
      ],
      "name": "OwnableInvalidOwner",
      "type": "error"
    },
    {
      "inputs": [
        {
          "internalType": "address",
          "name": "account",
          "type": "address"
        }
      ],
      "name": "OwnableUnauthorizedAccount",
      "type": "error"
    },
    {
      "inputs": [],
      "name": "ReentrancyGuardReentrantCall",
      "type": "error"
    },
    {
      "inputs": [
        {
          "internalType": "address",
          "name": "caller",
          "type": "address"
        },
        {
          "internalType": "address",
          "name": "owner",
          "type": "address"
        }
      ],
      "name": "UnauthorizedCollectionOwner",
      "type": "error"
    },
    {
      "anonymous": false,
      "inputs": [
        {
          "indexed": true,
          "internalType": "uint256",
          "name": "collectionId",
          "type": "uint256"
        },
        {
          "indexed": true,
          "internalType": "uint256",
          "name": "oldPrice",
          "type": "uint256"
        },
        {
          "indexed": true,
          "internalType": "uint256",
          "name": "newPrice",
          "type": "uint256"
        }
      ],
      "name": "CollectionPriceUpdated",
      "type": "event"
    },
    {
      "anonymous": false,
      "inputs": [
        {
          "indexed": true,
          "internalType": "uint256",
          "name": "collectionId",
          "type": "uint256"
        },
        {
          "indexed": true,
          "internalType": "address",
          "name": "by",
          "type": "address"
        },
        {
          "indexed": true,
          "internalType": "bool",
          "name": "isAllowed",
          "type": "bool"
        }
      ],
      "name": "CollectionSaleStatusUpdated",
      "type": "event"
    },
    {
      "anonymous": false,
      "inputs": [
        {
          "indexed": true,
          "internalType": "address",
          "name": "previousOwner",
          "type": "address"
        },
        {
          "indexed": true,
          "internalType": "address",
          "name": "newOwner",
          "type": "address"
        }
      ],
      "name": "OwnershipTransferred",
      "type": "event"
    },
    {
      "stateMutability": "payable",
      "type": "fallback"
    },
    {
      "inputs": [
        {
          "internalType": "uint256",
          "name": "collectionId_",
          "type": "uint256"
        },
        {
          "internalType": "address",
          "name": "of_",
          "type": "address"
        }
      ],
      "name": "BuyCollection",
      "outputs": [],
      "stateMutability": "payable",
      "type": "function"
    },
    {
      "inputs": [],
      "name": "SELL_FEE",
      "outputs": [
        {
          "internalType": "uint256",
          "name": "",
          "type": "uint256"
        }
      ],
      "stateMutability": "view",
      "type": "function"
    },
    {
      "inputs": [
        {
          "internalType": "uint256",
          "name": "collectionId_",
          "type": "uint256"
        },
        {
          "internalType": "uint256",
          "name": "newPrice_",
          "type": "uint256"
        },
        {
          "internalType": "bool",
          "name": "status_",
          "type": "bool"
        }
      ],
      "name": "UpdateCollectionStatus",
      "outputs": [],
      "stateMutability": "nonpayable",
      "type": "function"
    },
    {
      "inputs": [],
      "name": "collectionId",
      "outputs": [
        {
          "internalType": "uint256",
          "name": "",
          "type": "uint256"
        }
      ],
      "stateMutability": "view",
      "type": "function"
    },
    {
      "inputs": [
        {
          "internalType": "uint256",
          "name": "",
          "type": "uint256"
        }
      ],
      "name": "collectionPrice",
      "outputs": [
        {
          "internalType": "uint256",
          "name": "",
          "type": "uint256"
        }
      ],
      "stateMutability": "view",
      "type": "function"
    },
    {
      "inputs": [
        {
          "internalType": "uint256",
          "name": "",
          "type": "uint256"
        },
        {
          "internalType": "address",
          "name": "",
          "type": "address"
        }
      ],
      "name": "collections",
      "outputs": [
        {
          "internalType": "address",
          "name": "",
          "type": "address"
        }
      ],
      "stateMutability": "view",
      "type": "function"
    },
    {
      "inputs": [
        {
          "internalType": "string",
          "name": "collectionName_",
          "type": "string"
        },
        {
          "internalType": "string",
          "name": "collectionSymbol_",
          "type": "string"
        }
      ],
      "name": "createCollection",
      "outputs": [
        {
          "internalType": "uint256",
          "name": "",
          "type": "uint256"
        }
      ],
      "stateMutability": "nonpayable",
      "type": "function"
    },
    {
      "inputs": [
        {
          "internalType": "uint256",
          "name": "",
          "type": "uint256"
        }
      ],
      "name": "isForSale",
      "outputs": [
        {
          "internalType": "bool",
          "name": "",
          "type": "bool"
        }
      ],
      "stateMutability": "view",
      "type": "function"
    },
    {
      "inputs": [],
      "name": "owner",
      "outputs": [
        {
          "internalType": "address",
          "name": "",
          "type": "address"
        }
      ],
      "stateMutability": "view",
      "type": "function"
    },
    {
      "inputs": [],
      "name": "renounceOwnership",
      "outputs": [],
      "stateMutability": "nonpayable",
      "type": "function"
    },
    {
      "inputs": [
        {
          "internalType": "address",
          "name": "newOwner",
          "type": "address"
        }
      ],
      "name": "transferOwnership",
      "outputs": [],
      "stateMutability": "nonpayable",
      "type": "function"
    },
    {
      "inputs": [],
      "name": "withdrawFees",
      "outputs": [],
      "stateMutability": "nonpayable",
      "type": "function"
    },
    {
      "stateMutability": "payable",
      "type": "receive"
    }
  ],
  "bytecode": "0x60a0604052666a94d74f4300006080908152503480156200001f57600080fd5b5062000030620000e460201b60201c565b600073ffffffffffffffffffffffffffffffffffffffff168173ffffffffffffffffffffffffffffffffffffffff1603620000a55760006040517f1e4fbdf70000000000000000000000000000000000000000000000000000000081526004016200009c919062000359565b60405180910390fd5b620000b681620000ec60201b60201c565b5060018081905550620000de620000d2620000e460201b60201c565b620001b060201b60201c565b62000376565b600033905090565b60008060009054906101000a900473ffffffffffffffffffffffffffffffffffffffff169050816000806101000a81548173ffffffffffffffffffffffffffffffffffffffff021916908373ffffffffffffffffffffffffffffffffffffffff1602179055508173ffffffffffffffffffffffffffffffffffffffff168173ffffffffffffffffffffffffffffffffffffffff167f8be0079c531659141344cd1fd0a4f28419497f9722a3daafe3b4186f6b6457e060405160405180910390a35050565b620001c06200024960201b60201c565b600073ffffffffffffffffffffffffffffffffffffffff168173ffffffffffffffffffffffffffffffffffffffff1603620002355760006040517f1e4fbdf70000000000000000000000000000000000000000000000000000000081526004016200022c919062000359565b60405180910390fd5b6200024681620000ec60201b60201c565b50565b62000259620000e460201b60201c565b73ffffffffffffffffffffffffffffffffffffffff166200027f620002eb60201b60201c565b73ffffffffffffffffffffffffffffffffffffffff1614620002e957620002ab620000e460201b60201c565b6040517f118cdaa7000000000000000000000000000000000000000000000000000000008152600401620002e0919062000359565b60405180910390fd5b565b60008060009054906101000a900473ffffffffffffffffffffffffffffffffffffffff16905090565b600073ffffffffffffffffffffffffffffffffffffffff82169050919050565b6000620003418262000314565b9050919050565b620003538162000334565b82525050565b600060208201905062000370600083018462000348565b92915050565b608051615b1b62000399600039600081816105c901526109540152615b1b6000f3fe608060405260043610620000bb5760003560e01c80638546d002116200006d5780638546d002146200021c5780638da5cb5b1462000260578063a2021ea31462000290578063b4f0ad8b14620002be578063ea0354221462000302578063f2fde38b146200032257620000c3565b8063176b9b7514620001005780633d26bb671462000144578063476343ee14620001745780634773a6a9146200018e57806352cb7e0a14620001be578063715018a6146200020257620000c3565b36620000c357005b6040517f08c379a0000000000000000000000000000000000000000000000000000000008152600401620000f790620011bb565b60405180910390fd5b3480156200010d57600080fd5b506200012c600480360381019062000126919062001255565b62000350565b6040516200013b9190620012fe565b60405180910390f35b3480156200015157600080fd5b506200015c620004f8565b6040516200016b9190620012fe565b60405180910390f35b3480156200018157600080fd5b506200018c620004fe565b005b3480156200019b57600080fd5b50620001a6620005c7565b604051620001b59190620012fe565b60405180910390f35b348015620001cb57600080fd5b50620001ea6004803603810190620001e49190620013b1565b620005eb565b604051620001f9919062001409565b60405180910390f35b3480156200020f57600080fd5b506200021a6200062d565b005b3480156200022957600080fd5b5062000248600480360381019062000242919062001426565b62000645565b60405162000257919062001475565b60405180910390f35b3480156200026d57600080fd5b506200027862000665565b60405162000287919062001409565b60405180910390f35b3480156200029d57600080fd5b50620002bc6004803603810190620002b69190620014c3565b6200068e565b005b348015620002cb57600080fd5b50620002ea6004803603810190620002e4919062001426565b62000779565b604051620002f99190620012fe565b60405180910390f35b6200032060048036038101906200031a9190620013b1565b62000791565b005b3480156200032f57600080fd5b506200034e60048036038101906200034891906200151f565b62000c71565b005b600080858585856200036162000cfe565b3060405162000370906200114c565b6200038196959493929190620015a4565b604051809103906000f0801580156200039e573d6000803e3d6000fd5b509050806003600060025481526020019081526020016000206000620003c362000cfe565b73ffffffffffffffffffffffffffffffffffffffff1673ffffffffffffffffffffffffffffffffffffffff16815260200190815260200160002060006101000a81548173ffffffffffffffffffffffffffffffffffffffff021916908373ffffffffffffffffffffffffffffffffffffffff1602179055506200044562000cfe565b600460008373ffffffffffffffffffffffffffffffffffffffff1673ffffffffffffffffffffffffffffffffffffffff16815260200190815260200160002060006101000a81548173ffffffffffffffffffffffffffffffffffffffff021916908373ffffffffffffffffffffffffffffffffffffffff16021790555060026000815480929190620004d79062001632565b91905055506001600254620004ed91906200167f565b915050949350505050565b60025481565b6200050862000d06565b60006200051462000665565b73ffffffffffffffffffffffffffffffffffffffff16476040516200053990620016ef565b60006040518083038185875af1925050503d806000811462000578576040519150601f19603f3d011682016040523d82523d6000602084013e6200057d565b606091505b5050905080620005c4576040517f08c379a0000000000000000000000000000000000000000000000000000000008152600401620005bb9062001756565b60405180910390fd5b50565b7f000000000000000000000000000000000000000000000000000000000000000081565b60036020528160005260406000206020528060005260406000206000915091509054906101000a900473ffffffffffffffffffffffffffffffffffffffff1681565b6200063762000d06565b62000643600062000d96565b565b60056020528060005260406000206000915054906101000a900460ff1681565b60008060009054906101000a900473ffffffffffffffffffffffffffffffffffffffff16905090565b620006998362000e5a565b806005600085815260200190815260200160002060006101000a81548160ff0219169083151502179055506000600660008581526020019081526020016000205490508260066000868152602001908152602001600020819055508281857fa9bd118d794b0190f02605a82a7c3b133b6cedc78d7962093c669da0c3a21f9560405160405180910390a48115156200073062000cfe565b73ffffffffffffffffffffffffffffffffffffffff16857f864533a978fbe33caeb7b4e63fd761c5f96aba469edb26dd6a869a54960b297f60405160405180910390a450505050565b60066020528060005260406000206000915090505481565b6200079b62001021565b60006003600084815260200190815260200160002060008373ffffffffffffffffffffffffffffffffffffffff1673ffffffffffffffffffffffffffffffffffffffff16815260200190815260200160002060009054906101000a900473ffffffffffffffffffffffffffffffffffffffff1690506200081c838362001068565b600060066000858152602001908152602001600020549050803410156200087e5734816040517f1fbeaea00000000000000000000000000000000000000000000000000000000081526004016200087592919062001778565b60405180910390fd5b60008273ffffffffffffffffffffffffffffffffffffffff166370a08231856040518263ffffffff1660e01b8152600401620008bb919062001409565b602060405180830381865afa158015620008d9573d6000803e3d6000fd5b505050506040513d601f19601f82011682018060405250810190620008ff9190620017bc565b90506000810362000947576040517f08c379a00000000000000000000000000000000000000000000000000000000081526004016200093e906200183e565b60405180910390fd5b6000670de0b6b3a76400007f00000000000000000000000000000000000000000000000000000000000000003462000980919062001860565b6200098c9190620018da565b9050600081346200099e91906200167f565b905084600360008981526020019081526020016000206000620009c062000cfe565b73ffffffffffffffffffffffffffffffffffffffff1673ffffffffffffffffffffffffffffffffffffffff16815260200190815260200160002060006101000a81548173ffffffffffffffffffffffffffffffffffffffff021916908373ffffffffffffffffffffffffffffffffffffffff1602179055506003600088815260200190815260200160002060008773ffffffffffffffffffffffffffffffffffffffff1673ffffffffffffffffffffffffffffffffffffffff16815260200190815260200160002060006101000a81549073ffffffffffffffffffffffffffffffffffffffff021916905562000ab562000cfe565b600460008773ffffffffffffffffffffffffffffffffffffffff1673ffffffffffffffffffffffffffffffffffffffff16815260200190815260200160002060006101000a81548173ffffffffffffffffffffffffffffffffffffffff021916908373ffffffffffffffffffffffffffffffffffffffff16021790555060008673ffffffffffffffffffffffffffffffffffffffff168260405162000b5a90620016ef565b60006040518083038185875af1925050503d806000811462000b99576040519150601f19603f3d011682016040523d82523d6000602084013e62000b9e565b606091505b505090508062000be5576040517f08c379a000000000000000000000000000000000000000000000000000000000815260040162000bdc9062001962565b60405180910390fd5b8573ffffffffffffffffffffffffffffffffffffffff1663bf281b7b62000c0b62000cfe565b6040518263ffffffff1660e01b815260040162000c29919062001409565b600060405180830381600087803b15801562000c4457600080fd5b505af115801562000c59573d6000803e3d6000fd5b5050505050505050505062000c6d62001143565b5050565b62000c7b62000d06565b600073ffffffffffffffffffffffffffffffffffffffff168173ffffffffffffffffffffffffffffffffffffffff160362000cf05760006040517f1e4fbdf700000000000000000000000000000000000000000000000000000000815260040162000ce7919062001409565b60405180910390fd5b62000cfb8162000d96565b50565b600033905090565b62000d1062000cfe565b73ffffffffffffffffffffffffffffffffffffffff1662000d3062000665565b73ffffffffffffffffffffffffffffffffffffffff161462000d945762000d5662000cfe565b6040517f118cdaa700000000000000000000000000000000000000000000000000000000815260040162000d8b919062001409565b60405180910390fd5b565b60008060009054906101000a900473ffffffffffffffffffffffffffffffffffffffff169050816000806101000a81548173ffffffffffffffffffffffffffffffffffffffff021916908373ffffffffffffffffffffffffffffffffffffffff1602179055508173ffffffffffffffffffffffffffffffffffffffff168173ffffffffffffffffffffffffffffffffffffffff167f8be0079c531659141344cd1fd0a4f28419497f9722a3daafe3b4186f6b6457e060405160405180910390a35050565b600060036000838152602001908152602001600020600062000e7b62000cfe565b73ffffffffffffffffffffffffffffffffffffffff1673ffffffffffffffffffffffffffffffffffffffff16815260200190815260200160002060009054906101000a900473ffffffffffffffffffffffffffffffffffffffff169050600460008273ffffffffffffffffffffffffffffffffffffffff1673ffffffffffffffffffffffffffffffffffffffff16815260200190815260200160002060009054906101000a900473ffffffffffffffffffffffffffffffffffffffff1673ffffffffffffffffffffffffffffffffffffffff1662000f5862000cfe565b73ffffffffffffffffffffffffffffffffffffffff16146200101d5762000f7e62000cfe565b600460008373ffffffffffffffffffffffffffffffffffffffff1673ffffffffffffffffffffffffffffffffffffffff16815260200190815260200160002060009054906101000a900473ffffffffffffffffffffffffffffffffffffffff166040517ff3b18f550000000000000000000000000000000000000000000000000000000081526004016200101492919062001984565b60405180910390fd5b5050565b6002600154036200105e576040517f3ee5aeb500000000000000000000000000000000000000000000000000000000815260040160405180910390fd5b6002600181905550565b6005600083815260200190815260200160002060009054906101000a900460ff166200113f57816003600084815260200190815260200160002060008373ffffffffffffffffffffffffffffffffffffffff1673ffffffffffffffffffffffffffffffffffffffff16815260200190815260200160002060009054906101000a900473ffffffffffffffffffffffffffffffffffffffff166040517f0bc6e68900000000000000000000000000000000000000000000000000000000815260040162001136929190620019b1565b60405180910390fd5b5050565b60018081905550565b61410780620019df83390190565b600082825260208201905092915050565b7f496e76616c69642066756e6374696f6e2063616c6c0000000000000000000000600082015250565b6000620011a36015836200115a565b9150620011b0826200116b565b602082019050919050565b60006020820190508181036000830152620011d68162001194565b9050919050565b600080fd5b600080fd5b600080fd5b600080fd5b600080fd5b60008083601f8401126200120f576200120e620011e7565b5b8235905067ffffffffffffffff8111156200122f576200122e620011ec565b5b6020830191508360018202830111156200124e576200124d620011f1565b5b9250929050565b60008060008060408587031215620012725762001271620011dd565b5b600085013567ffffffffffffffff811115620012935762001292620011e2565b5b620012a187828801620011f6565b9450945050602085013567ffffffffffffffff811115620012c757620012c6620011e2565b5b620012d587828801620011f6565b925092505092959194509250565b6000819050919050565b620012f881620012e3565b82525050565b6000602082019050620013156000830184620012ed565b92915050565b6200132681620012e3565b81146200133257600080fd5b50565b60008135905062001346816200131b565b92915050565b600073ffffffffffffffffffffffffffffffffffffffff82169050919050565b600062001379826200134c565b9050919050565b6200138b816200136c565b81146200139757600080fd5b50565b600081359050620013ab8162001380565b92915050565b60008060408385031215620013cb57620013ca620011dd565b5b6000620013db8582860162001335565b9250506020620013ee858286016200139a565b9150509250929050565b62001403816200136c565b82525050565b6000602082019050620014206000830184620013f8565b92915050565b6000602082840312156200143f576200143e620011dd565b5b60006200144f8482850162001335565b91505092915050565b60008115159050919050565b6200146f8162001458565b82525050565b60006020820190506200148c600083018462001464565b92915050565b6200149d8162001458565b8114620014a957600080fd5b50565b600081359050620014bd8162001492565b92915050565b600080600060608486031215620014df57620014de620011dd565b5b6000620014ef8682870162001335565b9350506020620015028682870162001335565b92505060406200151586828701620014ac565b9150509250925092565b600060208284031215620015385762001537620011dd565b5b600062001548848285016200139a565b91505092915050565b82818337600083830152505050565b6000601f19601f8301169050919050565b60006200157f83856200115a565b93506200158e83858462001551565b620015998362001560565b840190509392505050565b60006080820190508181036000830152620015c181888a62001571565b90508181036020830152620015d881868862001571565b9050620015e96040830185620013f8565b620015f86060830184620013f8565b979650505050505050565b7f4e487b7100000000000000000000000000000000000000000000000000000000600052601160045260246000fd5b60006200163f82620012e3565b91507fffffffffffffffffffffffffffffffffffffffffffffffffffffffffffffffff820362001674576200167362001603565b5b600182019050919050565b60006200168c82620012e3565b91506200169983620012e3565b9250828203905081811115620016b457620016b362001603565b5b92915050565b600081905092915050565b50565b6000620016d7600083620016ba565b9150620016e482620016c5565b600082019050919050565b6000620016fc82620016c8565b9150819050919050565b7f7769746864726177206661696c65640000000000000000000000000000000000600082015250565b60006200173e600f836200115a565b91506200174b8262001706565b602082019050919050565b6000602082019050818103600083015262001771816200172f565b9050919050565b60006040820190506200178f6000830185620012ed565b6200179e6020830184620012ed565b9392505050565b600081519050620017b6816200131b565b92915050565b600060208284031215620017d557620017d4620011dd565b5b6000620017e584828501620017a5565b91505092915050565b7f53656c6c657220686173206e6f20746f6b656e73000000000000000000000000600082015250565b6000620018266014836200115a565b91506200183382620017ee565b602082019050919050565b60006020820190508181036000830152620018598162001817565b9050919050565b60006200186d82620012e3565b91506200187a83620012e3565b92508282026200188a81620012e3565b91508282048414831517620018a457620018a362001603565b5b5092915050565b7f4e487b7100000000000000000000000000000000000000000000000000000000600052601260045260246000fd5b6000620018e782620012e3565b9150620018f483620012e3565b925082620019075762001906620018ab565b5b828204905092915050565b7f53656c6c6572207061796d656e74206661696c65640000000000000000000000600082015250565b60006200194a6015836200115a565b9150620019578262001912565b602082019050919050565b600060208201905081810360008301526200197d816200193b565b9050919050565b60006040820190506200199b6000830185620013f8565b620019aa6020830184620013f8565b9392505050565b6000604082019050620019c86000830185620012ed565b620019d76020830184620013f8565b939250505056fe60806040526040518060400160405280600a81526020017f426f617264417065732f00000000000000000000000000000000000000000000815250600990816200004a9190620004be565b503480156200005857600080fd5b50604051620041073803806200410783398181016040528101906200007e91906200076e565b838383600073ffffffffffffffffffffffffffffffffffffffff168173ffffffffffffffffffffffffffffffffffffffff1603620000f65760006040517f1e4fbdf7000000000000000000000000000000000000000000000000000000008152600401620000ed91906200082f565b60405180910390fd5b62000107816200018060201b60201c565b50600180819055508160029081620001209190620004be565b508060039081620001329190620004be565b50505080600a60006101000a81548173ffffffffffffffffffffffffffffffffffffffff021916908373ffffffffffffffffffffffffffffffffffffffff160217905550505050506200084c565b60008060009054906101000a900473ffffffffffffffffffffffffffffffffffffffff169050816000806101000a81548173ffffffffffffffffffffffffffffffffffffffff021916908373ffffffffffffffffffffffffffffffffffffffff1602179055508173ffffffffffffffffffffffffffffffffffffffff168173ffffffffffffffffffffffffffffffffffffffff167f8be0079c531659141344cd1fd0a4f28419497f9722a3daafe3b4186f6b6457e060405160405180910390a35050565b600081519050919050565b7f4e487b7100000000000000000000000000000000000000000000000000000000600052604160045260246000fd5b7f4e487b7100000000000000000000000000000000000000000000000000000000600052602260045260246000fd5b60006002820490506001821680620002c657607f821691505b602082108103620002dc57620002db6200027e565b5b50919050565b60008190508160005260206000209050919050565b60006020601f8301049050919050565b600082821b905092915050565b600060088302620003467fffffffffffffffffffffffffffffffffffffffffffffffffffffffffffffffff8262000307565b62000352868362000307565b95508019841693508086168417925050509392505050565b6000819050919050565b6000819050919050565b60006200039f6200039962000393846200036a565b62000374565b6200036a565b9050919050565b6000819050919050565b620003bb836200037e565b620003d3620003ca82620003a6565b84845462000314565b825550505050565b600090565b620003ea620003db565b620003f7818484620003b0565b505050565b5b818110156200041f5762000413600082620003e0565b600181019050620003fd565b5050565b601f8211156200046e576200043881620002e2565b6200044384620002f7565b8101602085101562000453578190505b6200046b6200046285620002f7565b830182620003fc565b50505b505050565b600082821c905092915050565b6000620004936000198460080262000473565b1980831691505092915050565b6000620004ae838362000480565b9150826002028217905092915050565b620004c98262000244565b67ffffffffffffffff811115620004e557620004e46200024f565b5b620004f18254620002ad565b620004fe82828562000423565b600060209050601f83116001811462000536576000841562000521578287015190505b6200052d8582620004a0565b8655506200059d565b601f1984166200054686620002e2565b60005b82811015620005705784890151825560018201915060208501945060208101905062000549565b868310156200059057848901516200058c601f89168262000480565b8355505b6001600288020188555050505b505050505050565b6000604051905090565b600080fd5b600080fd5b600080fd5b600080fd5b6000601f19601f8301169050919050565b620005df82620005c3565b810181811067ffffffffffffffff821117156200060157620006006200024f565b5b80604052505050565b600062000616620005a5565b9050620006248282620005d4565b919050565b600067ffffffffffffffff8211156200064757620006466200024f565b5b6200065282620005c3565b9050602081019050919050565b60005b838110156200067f57808201518184015260208101905062000662565b60008484015250505050565b6000620006a26200069c8462000629565b6200060a565b905082815260208101848484011115620006c157620006c0620005be565b5b620006ce8482856200065f565b509392505050565b600082601f830112620006ee57620006ed620005b9565b5b8151620007008482602086016200068b565b91505092915050565b600073ffffffffffffffffffffffffffffffffffffffff82169050919050565b6000620007368262000709565b9050919050565b620007488162000729565b81146200075457600080fd5b50565b60008151905062000768816200073d565b92915050565b600080600080608085870312156200078b576200078a620005af565b5b600085015167ffffffffffffffff811115620007ac57620007ab620005b4565b5b620007ba87828801620006d6565b945050602085015167ffffffffffffffff811115620007de57620007dd620005b4565b5b620007ec87828801620006d6565b9350506040620007ff8782880162000757565b9250506060620008128782880162000757565b91505092959194509250565b620008298162000729565b82525050565b60006020820190506200084660008301846200081e565b92915050565b6138ab806200085c6000396000f3fe6080604052600436106101bb5760003560e01c8063747ceb23116100ec578063bf0c8c161161008a578063d4ddce8a11610064578063d4ddce8a1461066d578063d96a094a146106aa578063e985e9c5146106c6578063f2fde38b14610703576101c2565b8063bf0c8c16146105de578063bf281b7b14610607578063c87b56dd14610630576101c2565b8063931688cb116100c6578063931688cb1461053857806395d89b4114610561578063a22cb4651461058c578063b88d4fde146105b5576101c2565b8063747ceb23146104a7578063897925f5146104e45780638da5cb5b1461050d576101c2565b806323b872dd1161015957806365e9e0d01161013357806365e9e0d0146103ff5780636c0360eb1461042857806370a0823114610453578063715018a614610490576101c2565b806323b872dd1461037057806342842e0e146103995780636352211e146103c2576101c2565b8063081812fc11610195578063081812fc146102a2578063095ea7b3146102df578063150b7a021461030857806317d70f7c14610345576101c2565b806301ffc9a7146101fd578063056b01ce1461023a57806306fdde0314610277576101c2565b366101c257005b6040517f08c379a00000000000000000000000000000000000000000000000000000000081526004016101f4906127cc565b60405180910390fd5b34801561020957600080fd5b50610224600480360381019061021f9190612858565b61072c565b60405161023191906128a0565b60405180910390f35b34801561024657600080fd5b50610261600480360381019061025c9190612a37565b61080e565b60405161026e9190612aa2565b60405180910390f35b34801561028357600080fd5b5061028c6108d1565b6040516102999190612b2b565b60405180910390f35b3480156102ae57600080fd5b506102c960048036038101906102c49190612b4d565b610963565b6040516102d69190612bbb565b60405180910390f35b3480156102eb57600080fd5b5061030660048036038101906103019190612c02565b61097f565b005b34801561031457600080fd5b5061032f600480360381019061032a9190612ca2565b610995565b60405161033c9190612d39565b60405180910390f35b34801561035157600080fd5b5061035a6109aa565b6040516103679190612aa2565b60405180910390f35b34801561037c57600080fd5b5061039760048036038101906103929190612d54565b6109b0565b005b3480156103a557600080fd5b506103c060048036038101906103bb9190612d54565b610ab2565b005b3480156103ce57600080fd5b506103e960048036038101906103e49190612b4d565b610ad2565b6040516103f69190612bbb565b60405180910390f35b34801561040b57600080fd5b5061042660048036038101906104219190612dd3565b610ae4565b005b34801561043457600080fd5b5061043d610b57565b60405161044a9190612b2b565b60405180910390f35b34801561045f57600080fd5b5061047a60048036038101906104759190612e13565b610be5565b6040516104879190612aa2565b60405180910390f35b34801561049c57600080fd5b506104a5610c9f565b005b3480156104b357600080fd5b506104ce60048036038101906104c99190612a37565b610cb3565b6040516104db9190612aa2565b60405180910390f35b3480156104f057600080fd5b5061050b60048036038101906105069190612e40565b610d83565b005b34801561051957600080fd5b50610522610e84565b60405161052f9190612bbb565b60405180910390f35b34801561054457600080fd5b5061055f600480360381019061055a9190612e80565b610ead565b005b34801561056d57600080fd5b50610576610ff9565b6040516105839190612b2b565b60405180910390f35b34801561059857600080fd5b506105b360048036038101906105ae9190612ec9565b61108b565b005b3480156105c157600080fd5b506105dc60048036038101906105d79190612faa565b6110a1565b005b3480156105ea57600080fd5b5061060560048036038101906106009190612dd3565b6110c6565b005b34801561061357600080fd5b5061062e60048036038101906106299190612e13565b6111e1565b005b34801561063c57600080fd5b5061065760048036038101906106529190612b4d565b611308565b6040516106649190612b2b565b60405180910390f35b34801561067957600080fd5b50610694600480360381019061068f9190612b4d565b61137c565b6040516106a19190612aa2565b60405180910390f35b6106c460048036038101906106bf9190612b4d565b611394565b005b3480156106d257600080fd5b506106ed60048036038101906106e8919061302d565b6117c4565b6040516106fa91906128a0565b60405180910390f35b34801561070f57600080fd5b5061072a60048036038101906107259190612e13565b611858565b005b60007f80ac58cd000000000000000000000000000000000000000000000000000000007bffffffffffffffffffffffffffffffffffffffffffffffffffffffff1916827bffffffffffffffffffffffffffffffffffffffffffffffffffffffff191614806107f757507f5b5e139f000000000000000000000000000000000000000000000000000000007bffffffffffffffffffffffffffffffffffffffffffffffffffffffff1916827bffffffffffffffffffffffffffffffffffffffffffffffffffffffff1916145b806108075750610806826118de565b5b9050919050565b6000610818611948565b82600081510361085f57806040517f1a21eb2f0000000000000000000000000000000000000000000000000000000081526004016108569190612b2b565b60405180910390fd5b83600b6000600854815260200190815260200160002090816108819190613279565b5061088e60085484610d83565b600860008154809291906108a19061337a565b91905055506108b96108b1610e84565b6008546119cf565b60016008546108c891906133c2565b91505092915050565b6060600280546108e09061309c565b80601f016020809104026020016040519081016040528092919081815260200182805461090c9061309c565b80156109595780601f1061092e57610100808354040283529160200191610959565b820191906000526020600020905b81548152906001019060200180831161093c57829003601f168201915b5050505050905090565b600061096e826119ed565b5061097882611a75565b9050919050565b610991828261098c611ab2565b611aba565b5050565b600063150b7a0260e01b905095945050505050565b60085481565b600073ffffffffffffffffffffffffffffffffffffffff168273ffffffffffffffffffffffffffffffffffffffff1603610a225760006040517f64a0ae92000000000000000000000000000000000000000000000000000000008152600401610a199190612bbb565b60405180910390fd5b6000610a368383610a31611ab2565b611acc565b90508373ffffffffffffffffffffffffffffffffffffffff168173ffffffffffffffffffffffffffffffffffffffff1614610aac578382826040517f64283d7b000000000000000000000000000000000000000000000000000000008152600401610aa3939291906133f6565b60405180910390fd5b50505050565b610acd838383604051806020016040528060008152506110a1565b505050565b6000610add826119ed565b9050919050565b610aec611948565b81610af6816119ed565b5081600d600085815260200190815260200160002060006101000a81548160ff021916908315150217905550811515837fa5ea128b867a8626afec026825b77d52c0891b9260ddbce80063c417e1ff2a2160405160405180910390a3505050565b60098054610b649061309c565b80601f0160208091040260200160405190810160405280929190818152602001828054610b909061309c565b8015610bdd5780601f10610bb257610100808354040283529160200191610bdd565b820191906000526020600020905b815481529060010190602001808311610bc057829003601f168201915b505050505081565b60008073ffffffffffffffffffffffffffffffffffffffff168273ffffffffffffffffffffffffffffffffffffffff1603610c585760006040517f89c62b64000000000000000000000000000000000000000000000000000000008152600401610c4f9190612bbb565b60405180910390fd5b600560008373ffffffffffffffffffffffffffffffffffffffff1673ffffffffffffffffffffffffffffffffffffffff168152602001908152602001600020549050919050565b610ca7611948565b610cb16000611ce6565b565b6000610cbd611948565b826000815103610d0457806040517f1a21eb2f000000000000000000000000000000000000000000000000000000008152600401610cfb9190612b2b565b60405180910390fd5b610d17610d0f610e84565b6008546119cf565b83600b600060085481526020019081526020016000209081610d399190613279565b50610d4660085484610d83565b610d536008546001610ae4565b60086000815480929190610d669061337a565b91905055506001600854610d7a91906133c2565b91505092915050565b81610d8d816119ed565b50826000610d9a82611daa565b9050610da4611ab2565b73ffffffffffffffffffffffffffffffffffffffff168173ffffffffffffffffffffffffffffffffffffffff1614610e1e57610dde611ab2565b82826040517f64283d7b000000000000000000000000000000000000000000000000000000008152600401610e15939291906133f6565b60405180910390fd5b6000600c600087815260200190815260200160002054905084600c6000888152602001908152602001600020819055508481877ed4fe314618b73a96886b87817a53a5ed51433b0234c85a5e9dafe2cb7b884260405160405180910390a4505050505050565b60008060009054906101000a900473ffffffffffffffffffffffffffffffffffffffff16905090565b610eb5611948565b806000815103610efc57806040517f1a21eb2f000000000000000000000000000000000000000000000000000000008152600401610ef39190612b2b565b60405180910390fd5b600060098054610f0b9061309c565b80601f0160208091040260200160405190810160405280929190818152602001828054610f379061309c565b8015610f845780601f10610f5957610100808354040283529160200191610f84565b820191906000526020600020905b815481529060010190602001808311610f6757829003601f168201915b505050505090508260099081610f9a9190613279565b506009604051610faa91906134bb565b604051809103902081604051610fc09190613503565b60405180910390207f309b29ded109b9e28fb9885757b3e0096eb75c51d23aa4635d68bcd569f6adc160405160405180910390a3505050565b6060600380546110089061309c565b80601f01602080910402602001604051908101604052809291908181526020018280546110349061309c565b80156110815780601f1061105657610100808354040283529160200191611081565b820191906000526020600020905b81548152906001019060200180831161106457829003601f168201915b5050505050905090565b61109d611096611ab2565b8383611de7565b5050565b6110ac8484846109b0565b6110c06110b7611ab2565b85858585611f56565b50505050565b816110d0816119ed565b508260006110dd82611daa565b90506110e7611ab2565b73ffffffffffffffffffffffffffffffffffffffff168173ffffffffffffffffffffffffffffffffffffffff161461116157611121611ab2565b82826040517f64283d7b000000000000000000000000000000000000000000000000000000008152600401611158939291906133f6565b60405180910390fd5b83600e600087815260200190815260200160002060006101000a81548160ff02191690831515021790555083151585611198611ab2565b73ffffffffffffffffffffffffffffffffffffffff167fb9f11113e89d33df2286186eb4b0d56eae94c6fb5f772b5df79fcfa01ecc891860405160405180910390a45050505050565b600a60009054906101000a900473ffffffffffffffffffffffffffffffffffffffff1673ffffffffffffffffffffffffffffffffffffffff16611222611ab2565b73ffffffffffffffffffffffffffffffffffffffff161461128157611245611ab2565b6040517fcc9529df0000000000000000000000000000000000000000000000000000000081526004016112789190612bbb565b60405180910390fd5b600061128b610e84565b90506000600854905060005b818110156112f9578273ffffffffffffffffffffffffffffffffffffffff166112bf82610ad2565b73ffffffffffffffffffffffffffffffffffffffff16036112e6576112e5838583612107565b5b80806112f19061337a565b915050611297565b5061130383611ce6565b505050565b6060611313826119ed565b506000600980546113239061309c565b90501161133f5760405180602001604052806000815250611375565b6009600b600084815260200190815260200160002060405160200161136592919061351a565b6040516020818303038152906040525b9050919050565b600c6020528060005260406000206000915090505481565b61139c612127565b806113a6816119ed565b506000600c6000848152602001908152602001600020549050600e600084815260200190815260200160002060009054906101000a900460ff1661142157826040517fcb5f92100000000000000000000000000000000000000000000000000000000081526004016114189190612aa2565b60405180910390fd5b803410156114685734816040517f1fbeaea000000000000000000000000000000000000000000000000000000000815260040161145f92919061353e565b60405180910390fd5b600061147384610ad2565b90506000600a60009054906101000a900473ffffffffffffffffffffffffffffffffffffffff1673ffffffffffffffffffffffffffffffffffffffff16634773a6a96040518163ffffffff1660e01b8152600401602060405180830381865afa1580156114e4573d6000803e3d6000fd5b505050506040513d601f19601f82011682018060405250810190611508919061357c565b90506000670de0b6b3a7640000823461152191906135a9565b61152b919061361a565b90506000813461153b91906133c2565b90506000600e600089815260200190815260200160002060006101000a81548160ff0219169083151502179055506000151587611576611ab2565b73ffffffffffffffffffffffffffffffffffffffff167fb9f11113e89d33df2286186eb4b0d56eae94c6fb5f772b5df79fcfa01ecc891860405160405180910390a46115ca846115c4611ab2565b89612107565b60008473ffffffffffffffffffffffffffffffffffffffff16826040516115f09061367c565b60006040518083038185875af1925050503d806000811461162d576040519150601f19603f3d011682016040523d82523d6000602084013e611632565b606091505b5050905080611676576040517f08c379a000000000000000000000000000000000000000000000000000000000815260040161166d906136dd565b60405180910390fd5b6000600a60009054906101000a900473ffffffffffffffffffffffffffffffffffffffff1673ffffffffffffffffffffffffffffffffffffffff16846040516116be9061367c565b60006040518083038185875af1925050503d80600081146116fb576040519150601f19603f3d011682016040523d82523d6000602084013e611700565b606091505b5050905080611744576040517f08c379a000000000000000000000000000000000000000000000000000000000815260040161173b90613749565b60405180910390fd5b888673ffffffffffffffffffffffffffffffffffffffff16611764611ab2565b73ffffffffffffffffffffffffffffffffffffffff167f9fa236593f411affe147142a606176190ea6b18be0643332f081175cfe608b6b8a6040516117a99190612aa2565b60405180910390a450505050505050506117c161216d565b50565b6000600760008473ffffffffffffffffffffffffffffffffffffffff1673ffffffffffffffffffffffffffffffffffffffff16815260200190815260200160002060008373ffffffffffffffffffffffffffffffffffffffff1673ffffffffffffffffffffffffffffffffffffffff16815260200190815260200160002060009054906101000a900460ff16905092915050565b611860611948565b600073ffffffffffffffffffffffffffffffffffffffff168173ffffffffffffffffffffffffffffffffffffffff16036118d25760006040517f1e4fbdf70000000000000000000000000000000000000000000000000000000081526004016118c99190612bbb565b60405180910390fd5b6118db81611ce6565b50565b60007f01ffc9a7000000000000000000000000000000000000000000000000000000007bffffffffffffffffffffffffffffffffffffffffffffffffffffffff1916827bffffffffffffffffffffffffffffffffffffffffffffffffffffffff1916149050919050565b611950611ab2565b73ffffffffffffffffffffffffffffffffffffffff1661196e610e84565b73ffffffffffffffffffffffffffffffffffffffff16146119cd57611991611ab2565b6040517f118cdaa70000000000000000000000000000000000000000000000000000000081526004016119c49190612bbb565b60405180910390fd5b565b6119e9828260405180602001604052806000815250612176565b5050565b6000806119f983611daa565b9050600073ffffffffffffffffffffffffffffffffffffffff168173ffffffffffffffffffffffffffffffffffffffff1603611a6c57826040517f7e273289000000000000000000000000000000000000000000000000000000008152600401611a639190612aa2565b60405180910390fd5b80915050919050565b60006006600083815260200190815260200160002060009054906101000a900473ffffffffffffffffffffffffffffffffffffffff169050919050565b600033905090565b611ac7838383600161219a565b505050565b600080611ad884611daa565b9050600073ffffffffffffffffffffffffffffffffffffffff168373ffffffffffffffffffffffffffffffffffffffff1614611b1a57611b1981848661235f565b5b600073ffffffffffffffffffffffffffffffffffffffff168173ffffffffffffffffffffffffffffffffffffffff1614611bab57611b5c60008560008061219a565b6001600560008373ffffffffffffffffffffffffffffffffffffffff1673ffffffffffffffffffffffffffffffffffffffff168152602001908152602001600020600082825403925050819055505b600073ffffffffffffffffffffffffffffffffffffffff168573ffffffffffffffffffffffffffffffffffffffff1614611c2e576001600560008773ffffffffffffffffffffffffffffffffffffffff1673ffffffffffffffffffffffffffffffffffffffff168152602001908152602001600020600082825401925050819055505b846004600086815260200190815260200160002060006101000a81548173ffffffffffffffffffffffffffffffffffffffff021916908373ffffffffffffffffffffffffffffffffffffffff160217905550838573ffffffffffffffffffffffffffffffffffffffff168273ffffffffffffffffffffffffffffffffffffffff167fddf252ad1be2c89b69c2b068fc378daa952ba7f163c4a11628f55a4df523b3ef60405160405180910390a4809150509392505050565b60008060009054906101000a900473ffffffffffffffffffffffffffffffffffffffff169050816000806101000a81548173ffffffffffffffffffffffffffffffffffffffff021916908373ffffffffffffffffffffffffffffffffffffffff1602179055508173ffffffffffffffffffffffffffffffffffffffff168173ffffffffffffffffffffffffffffffffffffffff167f8be0079c531659141344cd1fd0a4f28419497f9722a3daafe3b4186f6b6457e060405160405180910390a35050565b60006004600083815260200190815260200160002060009054906101000a900473ffffffffffffffffffffffffffffffffffffffff169050919050565b600073ffffffffffffffffffffffffffffffffffffffff168273ffffffffffffffffffffffffffffffffffffffff1603611e5857816040517f5b08ba18000000000000000000000000000000000000000000000000000000008152600401611e4f9190612bbb565b60405180910390fd5b80600760008573ffffffffffffffffffffffffffffffffffffffff1673ffffffffffffffffffffffffffffffffffffffff16815260200190815260200160002060008473ffffffffffffffffffffffffffffffffffffffff1673ffffffffffffffffffffffffffffffffffffffff16815260200190815260200160002060006101000a81548160ff0219169083151502179055508173ffffffffffffffffffffffffffffffffffffffff168373ffffffffffffffffffffffffffffffffffffffff167f17307eab39ab6107e8899845ad3d59bd9653f200f220920489ca2b5937696c3183604051611f4991906128a0565b60405180910390a3505050565b60008373ffffffffffffffffffffffffffffffffffffffff163b1115612100578273ffffffffffffffffffffffffffffffffffffffff1663150b7a02868685856040518563ffffffff1660e01b8152600401611fb594939291906137be565b6020604051808303816000875af1925050508015611ff157506040513d601f19601f82011682018060405250810190611fee919061381f565b60015b612075573d8060008114612021576040519150601f19603f3d011682016040523d82523d6000602084013e612026565b606091505b50600081510361206d57836040517f64a0ae920000000000000000000000000000000000000000000000000000000081526004016120649190612bbb565b60405180910390fd5b805160208201fd5b63150b7a0260e01b7bffffffffffffffffffffffffffffffffffffffffffffffffffffffff1916817bffffffffffffffffffffffffffffffffffffffffffffffffffffffff1916146120fe57836040517f64a0ae920000000000000000000000000000000000000000000000000000000081526004016120f59190612bbb565b60405180910390fd5b505b5050505050565b61212283838360405180602001604052806000815250612423565b505050565b600260015403612163576040517f3ee5aeb500000000000000000000000000000000000000000000000000000000815260040160405180910390fd5b6002600181905550565b60018081905550565b6121808383612448565b61219561218b611ab2565b6000858585611f56565b505050565b80806121d35750600073ffffffffffffffffffffffffffffffffffffffff168273ffffffffffffffffffffffffffffffffffffffff1614155b156123075760006121e3846119ed565b9050600073ffffffffffffffffffffffffffffffffffffffff168373ffffffffffffffffffffffffffffffffffffffff161415801561224e57508273ffffffffffffffffffffffffffffffffffffffff168173ffffffffffffffffffffffffffffffffffffffff1614155b8015612261575061225f81846117c4565b155b156122a357826040517fa9fbf51f00000000000000000000000000000000000000000000000000000000815260040161229a9190612bbb565b60405180910390fd5b811561230557838573ffffffffffffffffffffffffffffffffffffffff168273ffffffffffffffffffffffffffffffffffffffff167f8c5be1e5ebec7d5bd14f71427d1e84f3dd0314c0f7b2291e5b200ac8c7c3b92560405160405180910390a45b505b836006600085815260200190815260200160002060006101000a81548173ffffffffffffffffffffffffffffffffffffffff021916908373ffffffffffffffffffffffffffffffffffffffff16021790555050505050565b61236a838383612541565b61241e57600073ffffffffffffffffffffffffffffffffffffffff168373ffffffffffffffffffffffffffffffffffffffff16036123df57806040517f7e2732890000000000000000000000000000000000000000000000000000000081526004016123d69190612aa2565b60405180910390fd5b81816040517f177e802f00000000000000000000000000000000000000000000000000000000815260040161241592919061384c565b60405180910390fd5b505050565b61242e848484612602565b612442612439611ab2565b85858585611f56565b50505050565b600073ffffffffffffffffffffffffffffffffffffffff168273ffffffffffffffffffffffffffffffffffffffff16036124ba5760006040517f64a0ae920000000000000000000000000000000000000000000000000000000081526004016124b19190612bbb565b60405180910390fd5b60006124c883836000611acc565b9050600073ffffffffffffffffffffffffffffffffffffffff168173ffffffffffffffffffffffffffffffffffffffff161461253c5760006040517f73c6ac6e0000000000000000000000000000000000000000000000000000000081526004016125339190612bbb565b60405180910390fd5b505050565b60008073ffffffffffffffffffffffffffffffffffffffff168373ffffffffffffffffffffffffffffffffffffffff16141580156125f957508273ffffffffffffffffffffffffffffffffffffffff168473ffffffffffffffffffffffffffffffffffffffff1614806125ba57506125b984846117c4565b5b806125f857508273ffffffffffffffffffffffffffffffffffffffff166125e083611a75565b73ffffffffffffffffffffffffffffffffffffffff16145b5b90509392505050565b600073ffffffffffffffffffffffffffffffffffffffff168273ffffffffffffffffffffffffffffffffffffffff16036126745760006040517f64a0ae9200000000000000000000000000000000000000000000000000000000815260040161266b9190612bbb565b60405180910390fd5b600061268283836000611acc565b9050600073ffffffffffffffffffffffffffffffffffffffff168173ffffffffffffffffffffffffffffffffffffffff16036126f557816040517f7e2732890000000000000000000000000000000000000000000000000000000081526004016126ec9190612aa2565b60405180910390fd5b8373ffffffffffffffffffffffffffffffffffffffff168173ffffffffffffffffffffffffffffffffffffffff1614612769578382826040517f64283d7b000000000000000000000000000000000000000000000000000000008152600401612760939291906133f6565b60405180910390fd5b50505050565b600082825260208201905092915050565b7f496e76616c69642066756e6374696f6e2063616c6c0000000000000000000000600082015250565b60006127b660158361276f565b91506127c182612780565b602082019050919050565b600060208201905081810360008301526127e5816127a9565b9050919050565b6000604051905090565b600080fd5b600080fd5b60007fffffffff0000000000000000000000000000000000000000000000000000000082169050919050565b61283581612800565b811461284057600080fd5b50565b6000813590506128528161282c565b92915050565b60006020828403121561286e5761286d6127f6565b5b600061287c84828501612843565b91505092915050565b60008115159050919050565b61289a81612885565b82525050565b60006020820190506128b56000830184612891565b92915050565b600080fd5b600080fd5b6000601f19601f8301169050919050565b7f4e487b7100000000000000000000000000000000000000000000000000000000600052604160045260246000fd5b61290e826128c5565b810181811067ffffffffffffffff8211171561292d5761292c6128d6565b5b80604052505050565b60006129406127ec565b905061294c8282612905565b919050565b600067ffffffffffffffff82111561296c5761296b6128d6565b5b612975826128c5565b9050602081019050919050565b82818337600083830152505050565b60006129a461299f84612951565b612936565b9050828152602081018484840111156129c0576129bf6128c0565b5b6129cb848285612982565b509392505050565b600082601f8301126129e8576129e76128bb565b5b81356129f8848260208601612991565b91505092915050565b6000819050919050565b612a1481612a01565b8114612a1f57600080fd5b50565b600081359050612a3181612a0b565b92915050565b60008060408385031215612a4e57612a4d6127f6565b5b600083013567ffffffffffffffff811115612a6c57612a6b6127fb565b5b612a78858286016129d3565b9250506020612a8985828601612a22565b9150509250929050565b612a9c81612a01565b82525050565b6000602082019050612ab76000830184612a93565b92915050565b600081519050919050565b60005b83811015612ae6578082015181840152602081019050612acb565b60008484015250505050565b6000612afd82612abd565b612b07818561276f565b9350612b17818560208601612ac8565b612b20816128c5565b840191505092915050565b60006020820190508181036000830152612b458184612af2565b905092915050565b600060208284031215612b6357612b626127f6565b5b6000612b7184828501612a22565b91505092915050565b600073ffffffffffffffffffffffffffffffffffffffff82169050919050565b6000612ba582612b7a565b9050919050565b612bb581612b9a565b82525050565b6000602082019050612bd06000830184612bac565b92915050565b612bdf81612b9a565b8114612bea57600080fd5b50565b600081359050612bfc81612bd6565b92915050565b60008060408385031215612c1957612c186127f6565b5b6000612c2785828601612bed565b9250506020612c3885828601612a22565b9150509250929050565b600080fd5b600080fd5b60008083601f840112612c6257612c616128bb565b5b8235905067ffffffffffffffff811115612c7f57612c7e612c42565b5b602083019150836001820283011115612c9b57612c9a612c47565b5b9250929050565b600080600080600060808688031215612cbe57612cbd6127f6565b5b6000612ccc88828901612bed565b9550506020612cdd88828901612bed565b9450506040612cee88828901612a22565b935050606086013567ffffffffffffffff811115612d0f57612d0e6127fb565b5b612d1b88828901612c4c565b92509250509295509295909350565b612d3381612800565b82525050565b6000602082019050612d4e6000830184612d2a565b92915050565b600080600060608486031215612d6d57612d6c6127f6565b5b6000612d7b86828701612bed565b9350506020612d8c86828701612bed565b9250506040612d9d86828701612a22565b9150509250925092565b612db081612885565b8114612dbb57600080fd5b50565b600081359050612dcd81612da7565b92915050565b60008060408385031215612dea57612de96127f6565b5b6000612df885828601612a22565b9250506020612e0985828601612dbe565b9150509250929050565b600060208284031215612e2957612e286127f6565b5b6000612e3784828501612bed565b91505092915050565b60008060408385031215612e5757612e566127f6565b5b6000612e6585828601612a22565b9250506020612e7685828601612a22565b9150509250929050565b600060208284031215612e9657612e956127f6565b5b600082013567ffffffffffffffff811115612eb457612eb36127fb565b5b612ec0848285016129d3565b91505092915050565b60008060408385031215612ee057612edf6127f6565b5b6000612eee85828601612bed565b9250506020612eff85828601612dbe565b9150509250929050565b600067ffffffffffffffff821115612f2457612f236128d6565b5b612f2d826128c5565b9050602081019050919050565b6000612f4d612f4884612f09565b612936565b905082815260208101848484011115612f6957612f686128c0565b5b612f74848285612982565b509392505050565b600082601f830112612f9157612f906128bb565b5b8135612fa1848260208601612f3a565b91505092915050565b60008060008060808587031215612fc457612fc36127f6565b5b6000612fd287828801612bed565b9450506020612fe387828801612bed565b9350506040612ff487828801612a22565b925050606085013567ffffffffffffffff811115613015576130146127fb565b5b61302187828801612f7c565b91505092959194509250565b60008060408385031215613044576130436127f6565b5b600061305285828601612bed565b925050602061306385828601612bed565b9150509250929050565b7f4e487b7100000000000000000000000000000000000000000000000000000000600052602260045260246000fd5b600060028204905060018216806130b457607f821691505b6020821081036130c7576130c661306d565b5b50919050565b60008190508160005260206000209050919050565b60006020601f8301049050919050565b600082821b905092915050565b60006008830261312f7fffffffffffffffffffffffffffffffffffffffffffffffffffffffffffffffff826130f2565b61313986836130f2565b95508019841693508086168417925050509392505050565b6000819050919050565b600061317661317161316c84612a01565b613151565b612a01565b9050919050565b6000819050919050565b6131908361315b565b6131a461319c8261317d565b8484546130ff565b825550505050565b600090565b6131b96131ac565b6131c4818484613187565b505050565b5b818110156131e8576131dd6000826131b1565b6001810190506131ca565b5050565b601f82111561322d576131fe816130cd565b613207846130e2565b81016020851015613216578190505b61322a613222856130e2565b8301826131c9565b50505b505050565b600082821c905092915050565b600061325060001984600802613232565b1980831691505092915050565b6000613269838361323f565b9150826002028217905092915050565b61328282612abd565b67ffffffffffffffff81111561329b5761329a6128d6565b5b6132a5825461309c565b6132b08282856131ec565b600060209050601f8311600181146132e357600084156132d1578287015190505b6132db858261325d565b865550613343565b601f1984166132f1866130cd565b60005b82811015613319578489015182556001820191506020850194506020810190506132f4565b868310156133365784890151613332601f89168261323f565b8355505b6001600288020188555050505b505050505050565b7f4e487b7100000000000000000000000000000000000000000000000000000000600052601160045260246000fd5b600061338582612a01565b91507fffffffffffffffffffffffffffffffffffffffffffffffffffffffffffffffff82036133b7576133b661334b565b5b600182019050919050565b60006133cd82612a01565b91506133d883612a01565b92508282039050818111156133f0576133ef61334b565b5b92915050565b600060608201905061340b6000830186612bac565b6134186020830185612a93565b6134256040830184612bac565b949350505050565b600081905092915050565b600081546134458161309c565b61344f818661342d565b9450600182166000811461346a576001811461347f576134b2565b60ff19831686528115158202860193506134b2565b613488856130cd565b60005b838110156134aa5781548189015260018201915060208101905061348b565b838801955050505b50505092915050565b60006134c78284613438565b915081905092915050565b60006134dd82612abd565b6134e7818561342d565b93506134f7818560208601612ac8565b80840191505092915050565b600061350f82846134d2565b915081905092915050565b60006135268285613438565b91506135328284613438565b91508190509392505050565b60006040820190506135536000830185612a93565b6135606020830184612a93565b9392505050565b60008151905061357681612a0b565b92915050565b600060208284031215613592576135916127f6565b5b60006135a084828501613567565b91505092915050565b60006135b482612a01565b91506135bf83612a01565b92508282026135cd81612a01565b915082820484148315176135e4576135e361334b565b5b5092915050565b7f4e487b7100000000000000000000000000000000000000000000000000000000600052601260045260246000fd5b600061362582612a01565b915061363083612a01565b9250826136405761363f6135eb565b5b828204905092915050565b600081905092915050565b50565b600061366660008361364b565b915061367182613656565b600082019050919050565b600061368782613659565b9150819050919050565b7f5061796d656e7420746f2073656c6c6572206661696c65640000000000000000600082015250565b60006136c760188361276f565b91506136d282613691565b602082019050919050565b600060208201905081810360008301526136f6816136ba565b9050919050565b7f5061796d656e74206f6620666565206661696c65640000000000000000000000600082015250565b600061373360158361276f565b915061373e826136fd565b602082019050919050565b6000602082019050818103600083015261376281613726565b9050919050565b600081519050919050565b600082825260208201905092915050565b600061379082613769565b61379a8185613774565b93506137aa818560208601612ac8565b6137b3816128c5565b840191505092915050565b60006080820190506137d36000830187612bac565b6137e06020830186612bac565b6137ed6040830185612a93565b81810360608301526137ff8184613785565b905095945050505050565b6000815190506138198161282c565b92915050565b600060208284031215613835576138346127f6565b5b60006138438482850161380a565b91505092915050565b60006040820190506138616000830185612bac565b61386e6020830184612a93565b939250505056fea26469706673582212203c76a11d4208a8460bfa8e5059c1f849bd8545f7e67c6d9bfc0111383325919564736f6c63430008140033a2646970667358221220f4c4c2fa664b8ff42b60559753bd0a41ed3392ae091f7fce184496790d87605664736f6c63430008140033",
  "linkReferences": {},
  "deployedLinkReferences": {}
}