{
  "_format": "hh-sol-artifact-1",
  "contractName": "NFTsMarketplaceFactory",
  "sourceName": "onchain/NFTsMarketplaceFactory.sol",
  "abi": [
    {
      "inputs": [],
      "stateMutability": "nonpayable",
      "type": "constructor"
    },
    {
      "inputs": [
        {
          "internalType": "uint256",
          "name": "collectionId",
          "type": "uint256"
        },
        {
          "internalType": "address",
          "name": "collection",
          "type": "address"
        }
      ],
      "name": "CollectionIsNotForSale",
      "type": "error"
    },
    {
      "inputs": [
        {
          "internalType": "uint256",
          "name": "sent",
          "type": "uint256"
        },
        {
          "internalType": "uint256",
          "name": "required",
          "type": "uint256"
        }
      ],
      "name": "InsufficientETH",
      "type": "error"
    },
    {
      "inputs": [
        {
          "internalType": "address",
          "name": "owner",
          "type": "address"
        }
      ],
      "name": "OwnableInvalidOwner",
      "type": "error"
    },
    {
      "inputs": [
        {
          "internalType": "address",
          "name": "account",
          "type": "address"
        }
      ],
      "name": "OwnableUnauthorizedAccount",
      "type": "error"
    },
    {
      "inputs": [],
      "name": "ReentrancyGuardReentrantCall",
      "type": "error"
    },
    {
      "inputs": [
        {
          "internalType": "address",
          "name": "caller",
          "type": "address"
        },
        {
          "internalType": "address",
          "name": "owner",
          "type": "address"
        }
      ],
      "name": "UnauthorizedCollectionOwner",
      "type": "error"
    },
    {
      "anonymous": false,
      "inputs": [
        {
          "indexed": true,
          "internalType": "uint256",
          "name": "collectionId",
          "type": "uint256"
        },
        {
          "indexed": true,
          "internalType": "address",
          "name": "owner",
          "type": "address"
        },
        {
          "indexed": false,
          "internalType": "address",
          "name": "collectionAddress",
          "type": "address"
        }
      ],
      "name": "CollectionCreated",
      "type": "event"
    },
    {
      "anonymous": false,
      "inputs": [
        {
          "indexed": true,
          "internalType": "uint256",
          "name": "collectionId",
          "type": "uint256"
        },
        {
          "indexed": true,
          "internalType": "uint256",
          "name": "oldPrice",
          "type": "uint256"
        },
        {
          "indexed": true,
          "internalType": "uint256",
          "name": "newPrice",
          "type": "uint256"
        }
      ],
      "name": "CollectionPriceUpdated",
      "type": "event"
    },
    {
      "anonymous": false,
      "inputs": [
        {
          "indexed": true,
          "internalType": "uint256",
          "name": "collectionId",
          "type": "uint256"
        },
        {
          "indexed": true,
          "internalType": "address",
          "name": "by",
          "type": "address"
        },
        {
          "indexed": true,
          "internalType": "bool",
          "name": "isAllowed",
          "type": "bool"
        }
      ],
      "name": "CollectionSaleStatusUpdated",
      "type": "event"
    },
    {
      "anonymous": false,
      "inputs": [
        {
          "indexed": true,
          "internalType": "address",
          "name": "previousOwner",
          "type": "address"
        },
        {
          "indexed": true,
          "internalType": "address",
          "name": "newOwner",
          "type": "address"
        }
      ],
      "name": "OwnershipTransferred",
      "type": "event"
    },
    {
      "stateMutability": "payable",
      "type": "fallback"
    },
    {
      "inputs": [
        {
          "internalType": "uint256",
          "name": "collectionId_",
          "type": "uint256"
        },
        {
          "internalType": "address",
          "name": "of_",
          "type": "address"
        }
      ],
      "name": "BuyCollection",
      "outputs": [],
      "stateMutability": "payable",
      "type": "function"
    },
    {
      "inputs": [],
      "name": "SELL_FEE",
      "outputs": [
        {
          "internalType": "uint256",
          "name": "",
          "type": "uint256"
        }
      ],
      "stateMutability": "view",
      "type": "function"
    },
    {
      "inputs": [
        {
          "internalType": "uint256",
          "name": "collectionId_",
          "type": "uint256"
        },
        {
          "internalType": "uint256",
          "name": "newPrice_",
          "type": "uint256"
        },
        {
          "internalType": "bool",
          "name": "status_",
          "type": "bool"
        }
      ],
      "name": "UpdateCollectionStatus",
      "outputs": [],
      "stateMutability": "nonpayable",
      "type": "function"
    },
    {
      "inputs": [
        {
          "internalType": "address",
          "name": "",
          "type": "address"
        }
      ],
      "name": "collectionAddressToId",
      "outputs": [
        {
          "internalType": "uint256",
          "name": "",
          "type": "uint256"
        }
      ],
      "stateMutability": "view",
      "type": "function"
    },
    {
      "inputs": [],
      "name": "collectionId",
      "outputs": [
        {
          "internalType": "uint256",
          "name": "",
          "type": "uint256"
        }
      ],
      "stateMutability": "view",
      "type": "function"
    },
    {
      "inputs": [
        {
          "internalType": "uint256",
          "name": "",
          "type": "uint256"
        }
      ],
      "name": "collectionPrice",
      "outputs": [
        {
          "internalType": "uint256",
          "name": "",
          "type": "uint256"
        }
      ],
      "stateMutability": "view",
      "type": "function"
    },
    {
      "inputs": [
        {
          "internalType": "uint256",
          "name": "",
          "type": "uint256"
        },
        {
          "internalType": "address",
          "name": "",
          "type": "address"
        }
      ],
      "name": "collections",
      "outputs": [
        {
          "internalType": "address",
          "name": "",
          "type": "address"
        }
      ],
      "stateMutability": "view",
      "type": "function"
    },
    {
      "inputs": [
        {
          "internalType": "string",
          "name": "collectionName_",
          "type": "string"
        },
        {
          "internalType": "string",
          "name": "collectionSymbol_",
          "type": "string"
        }
      ],
      "name": "createCollection",
      "outputs": [
        {
          "internalType": "uint256",
          "name": "",
          "type": "uint256"
        }
      ],
      "stateMutability": "nonpayable",
      "type": "function"
    },
    {
      "inputs": [
        {
          "internalType": "uint256",
          "name": "",
          "type": "uint256"
        }
      ],
      "name": "isForSale",
      "outputs": [
        {
          "internalType": "bool",
          "name": "",
          "type": "bool"
        }
      ],
      "stateMutability": "view",
      "type": "function"
    },
    {
      "inputs": [],
      "name": "owner",
      "outputs": [
        {
          "internalType": "address",
          "name": "",
          "type": "address"
        }
      ],
      "stateMutability": "view",
      "type": "function"
    },
    {
      "inputs": [
        {
          "internalType": "address",
          "name": "",
          "type": "address"
        }
      ],
      "name": "ownerOfCollection",
      "outputs": [
        {
          "internalType": "address",
          "name": "",
          "type": "address"
        }
      ],
      "stateMutability": "view",
      "type": "function"
    },
    {
      "inputs": [],
      "name": "renounceOwnership",
      "outputs": [],
      "stateMutability": "nonpayable",
      "type": "function"
    },
    {
      "inputs": [
        {
          "internalType": "address",
          "name": "newOwner",
          "type": "address"
        }
      ],
      "name": "transferOwnership",
      "outputs": [],
      "stateMutability": "nonpayable",
      "type": "function"
    },
    {
      "inputs": [],
      "name": "withdrawFees",
      "outputs": [],
      "stateMutability": "nonpayable",
      "type": "function"
    },
    {
      "stateMutability": "payable",
      "type": "receive"
    }
  ],
  "bytecode": "0x60a0604052666a94d74f4300006080908152503480156200001f57600080fd5b5062000030620000e460201b60201c565b600073ffffffffffffffffffffffffffffffffffffffff168173ffffffffffffffffffffffffffffffffffffffff1603620000a55760006040517f1e4fbdf70000000000000000000000000000000000000000000000000000000081526004016200009c919062000359565b60405180910390fd5b620000b681620000ec60201b60201c565b5060018081905550620000de620000d2620000e460201b60201c565b620001b060201b60201c565b62000376565b600033905090565b60008060009054906101000a900473ffffffffffffffffffffffffffffffffffffffff169050816000806101000a81548173ffffffffffffffffffffffffffffffffffffffff021916908373ffffffffffffffffffffffffffffffffffffffff1602179055508173ffffffffffffffffffffffffffffffffffffffff168173ffffffffffffffffffffffffffffffffffffffff167f8be0079c531659141344cd1fd0a4f28419497f9722a3daafe3b4186f6b6457e060405160405180910390a35050565b620001c06200024960201b60201c565b600073ffffffffffffffffffffffffffffffffffffffff168173ffffffffffffffffffffffffffffffffffffffff1603620002355760006040517f1e4fbdf70000000000000000000000000000000000000000000000000000000081526004016200022c919062000359565b60405180910390fd5b6200024681620000ec60201b60201c565b50565b62000259620000e460201b60201c565b73ffffffffffffffffffffffffffffffffffffffff166200027f620002eb60201b60201c565b73ffffffffffffffffffffffffffffffffffffffff1614620002e957620002ab620000e460201b60201c565b6040517f118cdaa7000000000000000000000000000000000000000000000000000000008152600401620002e0919062000359565b60405180910390fd5b565b60008060009054906101000a900473ffffffffffffffffffffffffffffffffffffffff16905090565b600073ffffffffffffffffffffffffffffffffffffffff82169050919050565b6000620003418262000314565b9050919050565b620003538162000334565b82525050565b600060208201905062000370600083018462000348565b92915050565b608051615d3662000399600039600081816107550152610b130152615d366000f3fe608060405260043610620000f75760003560e01c80637a309b97116200008b578063a2021ea31162000061578063a2021ea31462000354578063b4f0ad8b1462000382578063ea03542214620003c6578063f2fde38b14620003e657620000ff565b80637a309b97146200029c5780638546d00214620002e05780638da5cb5b146200032457620000ff565b8063476343ee11620000cd578063476343ee14620001f45780634773a6a9146200020e57806352cb7e0a146200023e578063715018a6146200028257620000ff565b8063176b9b75146200013c5780633d26bb6714620001805780633e710b5514620001b057620000ff565b36620000ff57005b6040517f08c379a000000000000000000000000000000000000000000000000000000000815260040162000133906200137a565b60405180910390fd5b3480156200014957600080fd5b5062000168600480360381019062000162919062001414565b62000414565b604051620001779190620014bd565b60405180910390f35b3480156200018d57600080fd5b50620001986200066c565b604051620001a79190620014bd565b60405180910390f35b348015620001bd57600080fd5b50620001dc6004803603810190620001d691906200153f565b62000672565b604051620001eb9190620014bd565b60405180910390f35b3480156200020157600080fd5b506200020c6200068a565b005b3480156200021b57600080fd5b506200022662000753565b604051620002359190620014bd565b60405180910390f35b3480156200024b57600080fd5b506200026a6004803603810190620002649190620015a2565b62000777565b604051620002799190620015fa565b60405180910390f35b3480156200028f57600080fd5b506200029a620007b9565b005b348015620002a957600080fd5b50620002c86004803603810190620002c291906200153f565b620007d1565b604051620002d79190620015fa565b60405180910390f35b348015620002ed57600080fd5b506200030c600480360381019062000306919062001617565b62000804565b6040516200031b919062001666565b60405180910390f35b3480156200033157600080fd5b506200033c62000824565b6040516200034b9190620015fa565b60405180910390f35b3480156200036157600080fd5b506200038060048036038101906200037a9190620016b4565b6200084d565b005b3480156200038f57600080fd5b50620003ae6004803603810190620003a8919062001617565b62000938565b604051620003bd9190620014bd565b60405180910390f35b620003e46004803603810190620003de9190620015a2565b62000950565b005b348015620003f357600080fd5b506200041260048036038101906200040c91906200153f565b62000e30565b005b600080858585856200042562000ebd565b3060405162000434906200130b565b620004459695949392919062001763565b604051809103906000f08015801562000462573d6000803e3d6000fd5b509050600254600760008373ffffffffffffffffffffffffffffffffffffffff1673ffffffffffffffffffffffffffffffffffffffff16815260200190815260200160002081905550806003600060025481526020019081526020016000206000620004cd62000ebd565b73ffffffffffffffffffffffffffffffffffffffff1673ffffffffffffffffffffffffffffffffffffffff16815260200190815260200160002060006101000a81548173ffffffffffffffffffffffffffffffffffffffff021916908373ffffffffffffffffffffffffffffffffffffffff1602179055506200054f62000ebd565b600460008373ffffffffffffffffffffffffffffffffffffffff1673ffffffffffffffffffffffffffffffffffffffff16815260200190815260200160002060006101000a81548173ffffffffffffffffffffffffffffffffffffffff021916908373ffffffffffffffffffffffffffffffffffffffff16021790555060026000815480929190620005e190620017f1565b9190505550620005f062000ebd565b73ffffffffffffffffffffffffffffffffffffffff1660016002546200061791906200183e565b7fee4d8764b6b7ece682a156063b005e7b6669f9677a19d90b218fc10632eb7ab183604051620006489190620015fa565b60405180910390a360016002546200066191906200183e565b915050949350505050565b60025481565b60076020528060005260406000206000915090505481565b6200069462000ec5565b6000620006a062000824565b73ffffffffffffffffffffffffffffffffffffffff1647604051620006c590620018ae565b60006040518083038185875af1925050503d806000811462000704576040519150601f19603f3d011682016040523d82523d6000602084013e62000709565b606091505b505090508062000750576040517f08c379a0000000000000000000000000000000000000000000000000000000008152600401620007479062001915565b60405180910390fd5b50565b7f000000000000000000000000000000000000000000000000000000000000000081565b60036020528160005260406000206020528060005260406000206000915091509054906101000a900473ffffffffffffffffffffffffffffffffffffffff1681565b620007c362000ec5565b620007cf600062000f55565b565b60046020528060005260406000206000915054906101000a900473ffffffffffffffffffffffffffffffffffffffff1681565b60056020528060005260406000206000915054906101000a900460ff1681565b60008060009054906101000a900473ffffffffffffffffffffffffffffffffffffffff16905090565b620008588362001019565b806005600085815260200190815260200160002060006101000a81548160ff0219169083151502179055506000600660008581526020019081526020016000205490508260066000868152602001908152602001600020819055508281857fa9bd118d794b0190f02605a82a7c3b133b6cedc78d7962093c669da0c3a21f9560405160405180910390a4811515620008ef62000ebd565b73ffffffffffffffffffffffffffffffffffffffff16857f864533a978fbe33caeb7b4e63fd761c5f96aba469edb26dd6a869a54960b297f60405160405180910390a450505050565b60066020528060005260406000206000915090505481565b6200095a620011e0565b60006003600084815260200190815260200160002060008373ffffffffffffffffffffffffffffffffffffffff1673ffffffffffffffffffffffffffffffffffffffff16815260200190815260200160002060009054906101000a900473ffffffffffffffffffffffffffffffffffffffff169050620009db838362001227565b6000600660008581526020019081526020016000205490508034101562000a3d5734816040517f1fbeaea000000000000000000000000000000000000000000000000000000000815260040162000a3492919062001937565b60405180910390fd5b60008273ffffffffffffffffffffffffffffffffffffffff166370a08231856040518263ffffffff1660e01b815260040162000a7a9190620015fa565b602060405180830381865afa15801562000a98573d6000803e3d6000fd5b505050506040513d601f19601f8201168201806040525081019062000abe91906200197b565b90506000810362000b06576040517f08c379a000000000000000000000000000000000000000000000000000000000815260040162000afd90620019fd565b60405180910390fd5b6000670de0b6b3a76400007f00000000000000000000000000000000000000000000000000000000000000003462000b3f919062001a1f565b62000b4b919062001a99565b90506000813462000b5d91906200183e565b90508460036000898152602001908152602001600020600062000b7f62000ebd565b73ffffffffffffffffffffffffffffffffffffffff1673ffffffffffffffffffffffffffffffffffffffff16815260200190815260200160002060006101000a81548173ffffffffffffffffffffffffffffffffffffffff021916908373ffffffffffffffffffffffffffffffffffffffff1602179055506003600088815260200190815260200160002060008773ffffffffffffffffffffffffffffffffffffffff1673ffffffffffffffffffffffffffffffffffffffff16815260200190815260200160002060006101000a81549073ffffffffffffffffffffffffffffffffffffffff021916905562000c7462000ebd565b600460008773ffffffffffffffffffffffffffffffffffffffff1673ffffffffffffffffffffffffffffffffffffffff16815260200190815260200160002060006101000a81548173ffffffffffffffffffffffffffffffffffffffff021916908373ffffffffffffffffffffffffffffffffffffffff16021790555060008673ffffffffffffffffffffffffffffffffffffffff168260405162000d1990620018ae565b60006040518083038185875af1925050503d806000811462000d58576040519150601f19603f3d011682016040523d82523d6000602084013e62000d5d565b606091505b505090508062000da4576040517f08c379a000000000000000000000000000000000000000000000000000000000815260040162000d9b9062001b21565b60405180910390fd5b8573ffffffffffffffffffffffffffffffffffffffff1663bf281b7b62000dca62000ebd565b6040518263ffffffff1660e01b815260040162000de89190620015fa565b600060405180830381600087803b15801562000e0357600080fd5b505af115801562000e18573d6000803e3d6000fd5b5050505050505050505062000e2c62001302565b5050565b62000e3a62000ec5565b600073ffffffffffffffffffffffffffffffffffffffff168173ffffffffffffffffffffffffffffffffffffffff160362000eaf5760006040517f1e4fbdf700000000000000000000000000000000000000000000000000000000815260040162000ea69190620015fa565b60405180910390fd5b62000eba8162000f55565b50565b600033905090565b62000ecf62000ebd565b73ffffffffffffffffffffffffffffffffffffffff1662000eef62000824565b73ffffffffffffffffffffffffffffffffffffffff161462000f535762000f1562000ebd565b6040517f118cdaa700000000000000000000000000000000000000000000000000000000815260040162000f4a9190620015fa565b60405180910390fd5b565b60008060009054906101000a900473ffffffffffffffffffffffffffffffffffffffff169050816000806101000a81548173ffffffffffffffffffffffffffffffffffffffff021916908373ffffffffffffffffffffffffffffffffffffffff1602179055508173ffffffffffffffffffffffffffffffffffffffff168173ffffffffffffffffffffffffffffffffffffffff167f8be0079c531659141344cd1fd0a4f28419497f9722a3daafe3b4186f6b6457e060405160405180910390a35050565b60006003600083815260200190815260200160002060006200103a62000ebd565b73ffffffffffffffffffffffffffffffffffffffff1673ffffffffffffffffffffffffffffffffffffffff16815260200190815260200160002060009054906101000a900473ffffffffffffffffffffffffffffffffffffffff169050600460008273ffffffffffffffffffffffffffffffffffffffff1673ffffffffffffffffffffffffffffffffffffffff16815260200190815260200160002060009054906101000a900473ffffffffffffffffffffffffffffffffffffffff1673ffffffffffffffffffffffffffffffffffffffff166200111762000ebd565b73ffffffffffffffffffffffffffffffffffffffff1614620011dc576200113d62000ebd565b600460008373ffffffffffffffffffffffffffffffffffffffff1673ffffffffffffffffffffffffffffffffffffffff16815260200190815260200160002060009054906101000a900473ffffffffffffffffffffffffffffffffffffffff166040517ff3b18f55000000000000000000000000000000000000000000000000000000008152600401620011d392919062001b43565b60405180910390fd5b5050565b6002600154036200121d576040517f3ee5aeb500000000000000000000000000000000000000000000000000000000815260040160405180910390fd5b6002600181905550565b6005600083815260200190815260200160002060009054906101000a900460ff16620012fe57816003600084815260200190815260200160002060008373ffffffffffffffffffffffffffffffffffffffff1673ffffffffffffffffffffffffffffffffffffffff16815260200190815260200160002060009054906101000a900473ffffffffffffffffffffffffffffffffffffffff166040517f0bc6e689000000000000000000000000000000000000000000000000000000008152600401620012f592919062001b70565b60405180910390fd5b5050565b60018081905550565b6141638062001b9e83390190565b600082825260208201905092915050565b7f496e76616c69642066756e6374696f6e2063616c6c0000000000000000000000600082015250565b60006200136260158362001319565b91506200136f826200132a565b602082019050919050565b60006020820190508181036000830152620013958162001353565b9050919050565b600080fd5b600080fd5b600080fd5b600080fd5b600080fd5b60008083601f840112620013ce57620013cd620013a6565b5b8235905067ffffffffffffffff811115620013ee57620013ed620013ab565b5b6020830191508360018202830111156200140d576200140c620013b0565b5b9250929050565b600080600080604085870312156200143157620014306200139c565b5b600085013567ffffffffffffffff811115620014525762001451620013a1565b5b6200146087828801620013b5565b9450945050602085013567ffffffffffffffff811115620014865762001485620013a1565b5b6200149487828801620013b5565b925092505092959194509250565b6000819050919050565b620014b781620014a2565b82525050565b6000602082019050620014d46000830184620014ac565b92915050565b600073ffffffffffffffffffffffffffffffffffffffff82169050919050565b60006200150782620014da565b9050919050565b6200151981620014fa565b81146200152557600080fd5b50565b60008135905062001539816200150e565b92915050565b6000602082840312156200155857620015576200139c565b5b6000620015688482850162001528565b91505092915050565b6200157c81620014a2565b81146200158857600080fd5b50565b6000813590506200159c8162001571565b92915050565b60008060408385031215620015bc57620015bb6200139c565b5b6000620015cc858286016200158b565b9250506020620015df8582860162001528565b9150509250929050565b620015f481620014fa565b82525050565b6000602082019050620016116000830184620015e9565b92915050565b60006020828403121562001630576200162f6200139c565b5b600062001640848285016200158b565b91505092915050565b60008115159050919050565b620016608162001649565b82525050565b60006020820190506200167d600083018462001655565b92915050565b6200168e8162001649565b81146200169a57600080fd5b50565b600081359050620016ae8162001683565b92915050565b600080600060608486031215620016d057620016cf6200139c565b5b6000620016e0868287016200158b565b9350506020620016f3868287016200158b565b925050604062001706868287016200169d565b9150509250925092565b82818337600083830152505050565b6000601f19601f8301169050919050565b60006200173e838562001319565b93506200174d83858462001710565b62001758836200171f565b840190509392505050565b600060808201905081810360008301526200178081888a62001730565b905081810360208301526200179781868862001730565b9050620017a86040830185620015e9565b620017b76060830184620015e9565b979650505050505050565b7f4e487b7100000000000000000000000000000000000000000000000000000000600052601160045260246000fd5b6000620017fe82620014a2565b91507fffffffffffffffffffffffffffffffffffffffffffffffffffffffffffffffff8203620018335762001832620017c2565b5b600182019050919050565b60006200184b82620014a2565b91506200185883620014a2565b9250828203905081811115620018735762001872620017c2565b5b92915050565b600081905092915050565b50565b60006200189660008362001879565b9150620018a38262001884565b600082019050919050565b6000620018bb8262001887565b9150819050919050565b7f7769746864726177206661696c65640000000000000000000000000000000000600082015250565b6000620018fd600f8362001319565b91506200190a82620018c5565b602082019050919050565b600060208201905081810360008301526200193081620018ee565b9050919050565b60006040820190506200194e6000830185620014ac565b6200195d6020830184620014ac565b9392505050565b600081519050620019758162001571565b92915050565b6000602082840312156200199457620019936200139c565b5b6000620019a48482850162001964565b91505092915050565b7f53656c6c657220686173206e6f20746f6b656e73000000000000000000000000600082015250565b6000620019e560148362001319565b9150620019f282620019ad565b602082019050919050565b6000602082019050818103600083015262001a1881620019d6565b9050919050565b600062001a2c82620014a2565b915062001a3983620014a2565b925082820262001a4981620014a2565b9150828204841483151762001a635762001a62620017c2565b5b5092915050565b7f4e487b7100000000000000000000000000000000000000000000000000000000600052601260045260246000fd5b600062001aa682620014a2565b915062001ab383620014a2565b92508262001ac65762001ac562001a6a565b5b828204905092915050565b7f53656c6c6572207061796d656e74206661696c65640000000000000000000000600082015250565b600062001b0960158362001319565b915062001b168262001ad1565b602082019050919050565b6000602082019050818103600083015262001b3c8162001afa565b9050919050565b600060408201905062001b5a6000830185620015e9565b62001b696020830184620015e9565b9392505050565b600060408201905062001b876000830185620014ac565b62001b966020830184620015e9565b939250505056fe60806040526040518060400160405280600a81526020017f426f617264417065732f00000000000000000000000000000000000000000000815250600990816200004a9190620004be565b503480156200005857600080fd5b50604051620041633803806200416383398181016040528101906200007e91906200076e565b838383600073ffffffffffffffffffffffffffffffffffffffff168173ffffffffffffffffffffffffffffffffffffffff1603620000f65760006040517f1e4fbdf7000000000000000000000000000000000000000000000000000000008152600401620000ed91906200082f565b60405180910390fd5b62000107816200018060201b60201c565b50600180819055508160029081620001209190620004be565b508060039081620001329190620004be565b50505080600a60006101000a81548173ffffffffffffffffffffffffffffffffffffffff021916908373ffffffffffffffffffffffffffffffffffffffff160217905550505050506200084c565b60008060009054906101000a900473ffffffffffffffffffffffffffffffffffffffff169050816000806101000a81548173ffffffffffffffffffffffffffffffffffffffff021916908373ffffffffffffffffffffffffffffffffffffffff1602179055508173ffffffffffffffffffffffffffffffffffffffff168173ffffffffffffffffffffffffffffffffffffffff167f8be0079c531659141344cd1fd0a4f28419497f9722a3daafe3b4186f6b6457e060405160405180910390a35050565b600081519050919050565b7f4e487b7100000000000000000000000000000000000000000000000000000000600052604160045260246000fd5b7f4e487b7100000000000000000000000000000000000000000000000000000000600052602260045260246000fd5b60006002820490506001821680620002c657607f821691505b602082108103620002dc57620002db6200027e565b5b50919050565b60008190508160005260206000209050919050565b60006020601f8301049050919050565b600082821b905092915050565b600060088302620003467fffffffffffffffffffffffffffffffffffffffffffffffffffffffffffffffff8262000307565b62000352868362000307565b95508019841693508086168417925050509392505050565b6000819050919050565b6000819050919050565b60006200039f6200039962000393846200036a565b62000374565b6200036a565b9050919050565b6000819050919050565b620003bb836200037e565b620003d3620003ca82620003a6565b84845462000314565b825550505050565b600090565b620003ea620003db565b620003f7818484620003b0565b505050565b5b818110156200041f5762000413600082620003e0565b600181019050620003fd565b5050565b601f8211156200046e576200043881620002e2565b6200044384620002f7565b8101602085101562000453578190505b6200046b6200046285620002f7565b830182620003fc565b50505b505050565b600082821c905092915050565b6000620004936000198460080262000473565b1980831691505092915050565b6000620004ae838362000480565b9150826002028217905092915050565b620004c98262000244565b67ffffffffffffffff811115620004e557620004e46200024f565b5b620004f18254620002ad565b620004fe82828562000423565b600060209050601f83116001811462000536576000841562000521578287015190505b6200052d8582620004a0565b8655506200059d565b601f1984166200054686620002e2565b60005b82811015620005705784890151825560018201915060208501945060208101905062000549565b868310156200059057848901516200058c601f89168262000480565b8355505b6001600288020188555050505b505050505050565b6000604051905090565b600080fd5b600080fd5b600080fd5b600080fd5b6000601f19601f8301169050919050565b620005df82620005c3565b810181811067ffffffffffffffff821117156200060157620006006200024f565b5b80604052505050565b600062000616620005a5565b9050620006248282620005d4565b919050565b600067ffffffffffffffff8211156200064757620006466200024f565b5b6200065282620005c3565b9050602081019050919050565b60005b838110156200067f57808201518184015260208101905062000662565b60008484015250505050565b6000620006a26200069c8462000629565b6200060a565b905082815260208101848484011115620006c157620006c0620005be565b5b620006ce8482856200065f565b509392505050565b600082601f830112620006ee57620006ed620005b9565b5b8151620007008482602086016200068b565b91505092915050565b600073ffffffffffffffffffffffffffffffffffffffff82169050919050565b6000620007368262000709565b9050919050565b620007488162000729565b81146200075457600080fd5b50565b60008151905062000768816200073d565b92915050565b600080600080608085870312156200078b576200078a620005af565b5b600085015167ffffffffffffffff811115620007ac57620007ab620005b4565b5b620007ba87828801620006d6565b945050602085015167ffffffffffffffff811115620007de57620007dd620005b4565b5b620007ec87828801620006d6565b9350506040620007ff8782880162000757565b9250506060620008128782880162000757565b91505092959194509250565b620008298162000729565b82525050565b60006020820190506200084660008301846200081e565b92915050565b613907806200085c6000396000f3fe6080604052600436106101c65760003560e01c8063747ceb23116100f7578063b88d4fde11610095578063d4ddce8a11610064578063d4ddce8a146106b5578063d96a094a146106f2578063e985e9c51461070e578063f2fde38b1461074b576101cd565b8063b88d4fde146105fd578063bf0c8c1614610626578063bf281b7b1461064f578063c87b56dd14610678576101cd565b80638da5cb5b116100d15780638da5cb5b14610555578063931688cb1461058057806395d89b41146105a9578063a22cb465146105d4576101cd565b8063747ceb23146104b25780638546d002146104ef578063897925f51461052c576101cd565b806323b872dd1161016457806365e9e0d01161013e57806365e9e0d01461040a5780636c0360eb1461043357806370a082311461045e578063715018a61461049b576101cd565b806323b872dd1461037b57806342842e0e146103a45780636352211e146103cd576101cd565b8063081812fc116101a0578063081812fc146102ad578063095ea7b3146102ea578063150b7a021461031357806317d70f7c14610350576101cd565b806301ffc9a714610208578063056b01ce1461024557806306fdde0314610282576101cd565b366101cd57005b6040517f08c379a00000000000000000000000000000000000000000000000000000000081526004016101ff90612828565b60405180910390fd5b34801561021457600080fd5b5061022f600480360381019061022a91906128b4565b610774565b60405161023c91906128fc565b60405180910390f35b34801561025157600080fd5b5061026c60048036038101906102679190612a93565b610856565b6040516102799190612afe565b60405180910390f35b34801561028e57600080fd5b5061029761090d565b6040516102a49190612b87565b60405180910390f35b3480156102b957600080fd5b506102d460048036038101906102cf9190612ba9565b61099f565b6040516102e19190612c17565b60405180910390f35b3480156102f657600080fd5b50610311600480360381019061030c9190612c5e565b6109bb565b005b34801561031f57600080fd5b5061033a60048036038101906103359190612cfe565b6109d1565b6040516103479190612d95565b60405180910390f35b34801561035c57600080fd5b506103656109e6565b6040516103729190612afe565b60405180910390f35b34801561038757600080fd5b506103a2600480360381019061039d9190612db0565b6109ec565b005b3480156103b057600080fd5b506103cb60048036038101906103c69190612db0565b610aee565b005b3480156103d957600080fd5b506103f460048036038101906103ef9190612ba9565b610b0e565b6040516104019190612c17565b60405180910390f35b34801561041657600080fd5b50610431600480360381019061042c9190612e2f565b610b20565b005b34801561043f57600080fd5b50610448610b93565b6040516104559190612b87565b60405180910390f35b34801561046a57600080fd5b5061048560048036038101906104809190612e6f565b610c21565b6040516104929190612afe565b60405180910390f35b3480156104a757600080fd5b506104b0610cdb565b005b3480156104be57600080fd5b506104d960048036038101906104d49190612a93565b610cef565b6040516104e69190612afe565b60405180910390f35b3480156104fb57600080fd5b5061051660048036038101906105119190612ba9565b610dbf565b60405161052391906128fc565b60405180910390f35b34801561053857600080fd5b50610553600480360381019061054e9190612e9c565b610ddf565b005b34801561056157600080fd5b5061056a610ee0565b6040516105779190612c17565b60405180910390f35b34801561058c57600080fd5b506105a760048036038101906105a29190612edc565b610f09565b005b3480156105b557600080fd5b506105be611055565b6040516105cb9190612b87565b60405180910390f35b3480156105e057600080fd5b506105fb60048036038101906105f69190612f25565b6110e7565b005b34801561060957600080fd5b50610624600480360381019061061f9190613006565b6110fd565b005b34801561063257600080fd5b5061064d60048036038101906106489190612e2f565b611122565b005b34801561065b57600080fd5b5061067660048036038101906106719190612e6f565b61123d565b005b34801561068457600080fd5b5061069f600480360381019061069a9190612ba9565b611364565b6040516106ac9190612b87565b60405180910390f35b3480156106c157600080fd5b506106dc60048036038101906106d79190612ba9565b6113d8565b6040516106e99190612afe565b60405180910390f35b61070c60048036038101906107079190612ba9565b6113f0565b005b34801561071a57600080fd5b5061073560048036038101906107309190613089565b611820565b60405161074291906128fc565b60405180910390f35b34801561075757600080fd5b50610772600480360381019061076d9190612e6f565b6118b4565b005b60007f80ac58cd000000000000000000000000000000000000000000000000000000007bffffffffffffffffffffffffffffffffffffffffffffffffffffffff1916827bffffffffffffffffffffffffffffffffffffffffffffffffffffffff1916148061083f57507f5b5e139f000000000000000000000000000000000000000000000000000000007bffffffffffffffffffffffffffffffffffffffffffffffffffffffff1916827bffffffffffffffffffffffffffffffffffffffffffffffffffffffff1916145b8061084f575061084e8261193a565b5b9050919050565b60006108606119a4565b8260008151036108a757806040517f1a21eb2f00000000000000000000000000000000000000000000000000000000815260040161089e9190612b87565b60405180910390fd5b600060085490506108bf6108b9610ee0565b82611a2b565b84600b600083815260200190815260200160002090816108df91906132d5565b506108ea8185610ddf565b600860008154809291906108fd906133d6565b9190505550809250505092915050565b60606002805461091c906130f8565b80601f0160208091040260200160405190810160405280929190818152602001828054610948906130f8565b80156109955780601f1061096a57610100808354040283529160200191610995565b820191906000526020600020905b81548152906001019060200180831161097857829003601f168201915b5050505050905090565b60006109aa82611a49565b506109b482611ad1565b9050919050565b6109cd82826109c8611b0e565b611b16565b5050565b600063150b7a0260e01b905095945050505050565b60085481565b600073ffffffffffffffffffffffffffffffffffffffff168273ffffffffffffffffffffffffffffffffffffffff1603610a5e5760006040517f64a0ae92000000000000000000000000000000000000000000000000000000008152600401610a559190612c17565b60405180910390fd5b6000610a728383610a6d611b0e565b611b28565b90508373ffffffffffffffffffffffffffffffffffffffff168173ffffffffffffffffffffffffffffffffffffffff1614610ae8578382826040517f64283d7b000000000000000000000000000000000000000000000000000000008152600401610adf9392919061341e565b60405180910390fd5b50505050565b610b09838383604051806020016040528060008152506110fd565b505050565b6000610b1982611a49565b9050919050565b610b286119a4565b81610b3281611a49565b5081600d600085815260200190815260200160002060006101000a81548160ff021916908315150217905550811515837fa5ea128b867a8626afec026825b77d52c0891b9260ddbce80063c417e1ff2a2160405160405180910390a3505050565b60098054610ba0906130f8565b80601f0160208091040260200160405190810160405280929190818152602001828054610bcc906130f8565b8015610c195780601f10610bee57610100808354040283529160200191610c19565b820191906000526020600020905b815481529060010190602001808311610bfc57829003601f168201915b505050505081565b60008073ffffffffffffffffffffffffffffffffffffffff168273ffffffffffffffffffffffffffffffffffffffff1603610c945760006040517f89c62b64000000000000000000000000000000000000000000000000000000008152600401610c8b9190612c17565b60405180910390fd5b600560008373ffffffffffffffffffffffffffffffffffffffff1673ffffffffffffffffffffffffffffffffffffffff168152602001908152602001600020549050919050565b610ce36119a4565b610ced6000611d42565b565b6000610cf96119a4565b826000815103610d4057806040517f1a21eb2f000000000000000000000000000000000000000000000000000000008152600401610d379190612b87565b60405180910390fd5b610d53610d4b610ee0565b600854611a2b565b83600b600060085481526020019081526020016000209081610d7591906132d5565b50610d8260085484610ddf565b610d8f6008546001610b20565b60086000815480929190610da2906133d6565b91905055506001600854610db69190613455565b91505092915050565b600e6020528060005260406000206000915054906101000a900460ff1681565b81610de981611a49565b50826000610df682611e06565b9050610e00611b0e565b73ffffffffffffffffffffffffffffffffffffffff168173ffffffffffffffffffffffffffffffffffffffff1614610e7a57610e3a611b0e565b82826040517f64283d7b000000000000000000000000000000000000000000000000000000008152600401610e719392919061341e565b60405180910390fd5b6000600c600087815260200190815260200160002054905084600c6000888152602001908152602001600020819055508481877ed4fe314618b73a96886b87817a53a5ed51433b0234c85a5e9dafe2cb7b884260405160405180910390a4505050505050565b60008060009054906101000a900473ffffffffffffffffffffffffffffffffffffffff16905090565b610f116119a4565b806000815103610f5857806040517f1a21eb2f000000000000000000000000000000000000000000000000000000008152600401610f4f9190612b87565b60405180910390fd5b600060098054610f67906130f8565b80601f0160208091040260200160405190810160405280929190818152602001828054610f93906130f8565b8015610fe05780601f10610fb557610100808354040283529160200191610fe0565b820191906000526020600020905b815481529060010190602001808311610fc357829003601f168201915b505050505090508260099081610ff691906132d5565b5060096040516110069190613517565b60405180910390208160405161101c919061355f565b60405180910390207f309b29ded109b9e28fb9885757b3e0096eb75c51d23aa4635d68bcd569f6adc160405160405180910390a3505050565b606060038054611064906130f8565b80601f0160208091040260200160405190810160405280929190818152602001828054611090906130f8565b80156110dd5780601f106110b2576101008083540402835291602001916110dd565b820191906000526020600020905b8154815290600101906020018083116110c057829003601f168201915b5050505050905090565b6110f96110f2611b0e565b8383611e43565b5050565b6111088484846109ec565b61111c611113611b0e565b85858585611fb2565b50505050565b8161112c81611a49565b5082600061113982611e06565b9050611143611b0e565b73ffffffffffffffffffffffffffffffffffffffff168173ffffffffffffffffffffffffffffffffffffffff16146111bd5761117d611b0e565b82826040517f64283d7b0000000000000000000000000000000000000000000000000000000081526004016111b49392919061341e565b60405180910390fd5b83600e600087815260200190815260200160002060006101000a81548160ff021916908315150217905550831515856111f4611b0e565b73ffffffffffffffffffffffffffffffffffffffff167fb9f11113e89d33df2286186eb4b0d56eae94c6fb5f772b5df79fcfa01ecc891860405160405180910390a45050505050565b600a60009054906101000a900473ffffffffffffffffffffffffffffffffffffffff1673ffffffffffffffffffffffffffffffffffffffff1661127e611b0e565b73ffffffffffffffffffffffffffffffffffffffff16146112dd576112a1611b0e565b6040517fcc9529df0000000000000000000000000000000000000000000000000000000081526004016112d49190612c17565b60405180910390fd5b60006112e7610ee0565b90506000600854905060005b81811015611355578273ffffffffffffffffffffffffffffffffffffffff1661131b82610b0e565b73ffffffffffffffffffffffffffffffffffffffff160361134257611341838583612163565b5b808061134d906133d6565b9150506112f3565b5061135f83611d42565b505050565b606061136f82611a49565b5060006009805461137f906130f8565b90501161139b57604051806020016040528060008152506113d1565b6009600b60008481526020019081526020016000206040516020016113c1929190613576565b6040516020818303038152906040525b9050919050565b600c6020528060005260406000206000915090505481565b6113f8612183565b8061140281611a49565b506000600c6000848152602001908152602001600020549050600e600084815260200190815260200160002060009054906101000a900460ff1661147d57826040517fcb5f92100000000000000000000000000000000000000000000000000000000081526004016114749190612afe565b60405180910390fd5b803410156114c45734816040517f1fbeaea00000000000000000000000000000000000000000000000000000000081526004016114bb92919061359a565b60405180910390fd5b60006114cf84610b0e565b90506000600a60009054906101000a900473ffffffffffffffffffffffffffffffffffffffff1673ffffffffffffffffffffffffffffffffffffffff16634773a6a96040518163ffffffff1660e01b8152600401602060405180830381865afa158015611540573d6000803e3d6000fd5b505050506040513d601f19601f8201168201806040525081019061156491906135d8565b90506000670de0b6b3a7640000823461157d9190613605565b6115879190613676565b9050600081346115979190613455565b90506000600e600089815260200190815260200160002060006101000a81548160ff02191690831515021790555060001515876115d2611b0e565b73ffffffffffffffffffffffffffffffffffffffff167fb9f11113e89d33df2286186eb4b0d56eae94c6fb5f772b5df79fcfa01ecc891860405160405180910390a461162684611620611b0e565b89612163565b60008473ffffffffffffffffffffffffffffffffffffffff168260405161164c906136d8565b60006040518083038185875af1925050503d8060008114611689576040519150601f19603f3d011682016040523d82523d6000602084013e61168e565b606091505b50509050806116d2576040517f08c379a00000000000000000000000000000000000000000000000000000000081526004016116c990613739565b60405180910390fd5b6000600a60009054906101000a900473ffffffffffffffffffffffffffffffffffffffff1673ffffffffffffffffffffffffffffffffffffffff168460405161171a906136d8565b60006040518083038185875af1925050503d8060008114611757576040519150601f19603f3d011682016040523d82523d6000602084013e61175c565b606091505b50509050806117a0576040517f08c379a0000000000000000000000000000000000000000000000000000000008152600401611797906137a5565b60405180910390fd5b888673ffffffffffffffffffffffffffffffffffffffff166117c0611b0e565b73ffffffffffffffffffffffffffffffffffffffff167f9fa236593f411affe147142a606176190ea6b18be0643332f081175cfe608b6b8a6040516118059190612afe565b60405180910390a4505050505050505061181d6121c9565b50565b6000600760008473ffffffffffffffffffffffffffffffffffffffff1673ffffffffffffffffffffffffffffffffffffffff16815260200190815260200160002060008373ffffffffffffffffffffffffffffffffffffffff1673ffffffffffffffffffffffffffffffffffffffff16815260200190815260200160002060009054906101000a900460ff16905092915050565b6118bc6119a4565b600073ffffffffffffffffffffffffffffffffffffffff168173ffffffffffffffffffffffffffffffffffffffff160361192e5760006040517f1e4fbdf70000000000000000000000000000000000000000000000000000000081526004016119259190612c17565b60405180910390fd5b61193781611d42565b50565b60007f01ffc9a7000000000000000000000000000000000000000000000000000000007bffffffffffffffffffffffffffffffffffffffffffffffffffffffff1916827bffffffffffffffffffffffffffffffffffffffffffffffffffffffff1916149050919050565b6119ac611b0e565b73ffffffffffffffffffffffffffffffffffffffff166119ca610ee0565b73ffffffffffffffffffffffffffffffffffffffff1614611a29576119ed611b0e565b6040517f118cdaa7000000000000000000000000000000000000000000000000000000008152600401611a209190612c17565b60405180910390fd5b565b611a458282604051806020016040528060008152506121d2565b5050565b600080611a5583611e06565b9050600073ffffffffffffffffffffffffffffffffffffffff168173ffffffffffffffffffffffffffffffffffffffff1603611ac857826040517f7e273289000000000000000000000000000000000000000000000000000000008152600401611abf9190612afe565b60405180910390fd5b80915050919050565b60006006600083815260200190815260200160002060009054906101000a900473ffffffffffffffffffffffffffffffffffffffff169050919050565b600033905090565b611b2383838360016121f6565b505050565b600080611b3484611e06565b9050600073ffffffffffffffffffffffffffffffffffffffff168373ffffffffffffffffffffffffffffffffffffffff1614611b7657611b758184866123bb565b5b600073ffffffffffffffffffffffffffffffffffffffff168173ffffffffffffffffffffffffffffffffffffffff1614611c0757611bb86000856000806121f6565b6001600560008373ffffffffffffffffffffffffffffffffffffffff1673ffffffffffffffffffffffffffffffffffffffff168152602001908152602001600020600082825403925050819055505b600073ffffffffffffffffffffffffffffffffffffffff168573ffffffffffffffffffffffffffffffffffffffff1614611c8a576001600560008773ffffffffffffffffffffffffffffffffffffffff1673ffffffffffffffffffffffffffffffffffffffff168152602001908152602001600020600082825401925050819055505b846004600086815260200190815260200160002060006101000a81548173ffffffffffffffffffffffffffffffffffffffff021916908373ffffffffffffffffffffffffffffffffffffffff160217905550838573ffffffffffffffffffffffffffffffffffffffff168273ffffffffffffffffffffffffffffffffffffffff167fddf252ad1be2c89b69c2b068fc378daa952ba7f163c4a11628f55a4df523b3ef60405160405180910390a4809150509392505050565b60008060009054906101000a900473ffffffffffffffffffffffffffffffffffffffff169050816000806101000a81548173ffffffffffffffffffffffffffffffffffffffff021916908373ffffffffffffffffffffffffffffffffffffffff1602179055508173ffffffffffffffffffffffffffffffffffffffff168173ffffffffffffffffffffffffffffffffffffffff167f8be0079c531659141344cd1fd0a4f28419497f9722a3daafe3b4186f6b6457e060405160405180910390a35050565b60006004600083815260200190815260200160002060009054906101000a900473ffffffffffffffffffffffffffffffffffffffff169050919050565b600073ffffffffffffffffffffffffffffffffffffffff168273ffffffffffffffffffffffffffffffffffffffff1603611eb457816040517f5b08ba18000000000000000000000000000000000000000000000000000000008152600401611eab9190612c17565b60405180910390fd5b80600760008573ffffffffffffffffffffffffffffffffffffffff1673ffffffffffffffffffffffffffffffffffffffff16815260200190815260200160002060008473ffffffffffffffffffffffffffffffffffffffff1673ffffffffffffffffffffffffffffffffffffffff16815260200190815260200160002060006101000a81548160ff0219169083151502179055508173ffffffffffffffffffffffffffffffffffffffff168373ffffffffffffffffffffffffffffffffffffffff167f17307eab39ab6107e8899845ad3d59bd9653f200f220920489ca2b5937696c3183604051611fa591906128fc565b60405180910390a3505050565b60008373ffffffffffffffffffffffffffffffffffffffff163b111561215c578273ffffffffffffffffffffffffffffffffffffffff1663150b7a02868685856040518563ffffffff1660e01b8152600401612011949392919061381a565b6020604051808303816000875af192505050801561204d57506040513d601f19601f8201168201806040525081019061204a919061387b565b60015b6120d1573d806000811461207d576040519150601f19603f3d011682016040523d82523d6000602084013e612082565b606091505b5060008151036120c957836040517f64a0ae920000000000000000000000000000000000000000000000000000000081526004016120c09190612c17565b60405180910390fd5b805160208201fd5b63150b7a0260e01b7bffffffffffffffffffffffffffffffffffffffffffffffffffffffff1916817bffffffffffffffffffffffffffffffffffffffffffffffffffffffff19161461215a57836040517f64a0ae920000000000000000000000000000000000000000000000000000000081526004016121519190612c17565b60405180910390fd5b505b5050505050565b61217e8383836040518060200160405280600081525061247f565b505050565b6002600154036121bf576040517f3ee5aeb500000000000000000000000000000000000000000000000000000000815260040160405180910390fd5b6002600181905550565b60018081905550565b6121dc83836124a4565b6121f16121e7611b0e565b6000858585611fb2565b505050565b808061222f5750600073ffffffffffffffffffffffffffffffffffffffff168273ffffffffffffffffffffffffffffffffffffffff1614155b1561236357600061223f84611a49565b9050600073ffffffffffffffffffffffffffffffffffffffff168373ffffffffffffffffffffffffffffffffffffffff16141580156122aa57508273ffffffffffffffffffffffffffffffffffffffff168173ffffffffffffffffffffffffffffffffffffffff1614155b80156122bd57506122bb8184611820565b155b156122ff57826040517fa9fbf51f0000000000000000000000000000000000000000000000000000000081526004016122f69190612c17565b60405180910390fd5b811561236157838573ffffffffffffffffffffffffffffffffffffffff168273ffffffffffffffffffffffffffffffffffffffff167f8c5be1e5ebec7d5bd14f71427d1e84f3dd0314c0f7b2291e5b200ac8c7c3b92560405160405180910390a45b505b836006600085815260200190815260200160002060006101000a81548173ffffffffffffffffffffffffffffffffffffffff021916908373ffffffffffffffffffffffffffffffffffffffff16021790555050505050565b6123c683838361259d565b61247a57600073ffffffffffffffffffffffffffffffffffffffff168373ffffffffffffffffffffffffffffffffffffffff160361243b57806040517f7e2732890000000000000000000000000000000000000000000000000000000081526004016124329190612afe565b60405180910390fd5b81816040517f177e802f0000000000000000000000000000000000000000000000000000000081526004016124719291906138a8565b60405180910390fd5b505050565b61248a84848461265e565b61249e612495611b0e565b85858585611fb2565b50505050565b600073ffffffffffffffffffffffffffffffffffffffff168273ffffffffffffffffffffffffffffffffffffffff16036125165760006040517f64a0ae9200000000000000000000000000000000000000000000000000000000815260040161250d9190612c17565b60405180910390fd5b600061252483836000611b28565b9050600073ffffffffffffffffffffffffffffffffffffffff168173ffffffffffffffffffffffffffffffffffffffff16146125985760006040517f73c6ac6e00000000000000000000000000000000000000000000000000000000815260040161258f9190612c17565b60405180910390fd5b505050565b60008073ffffffffffffffffffffffffffffffffffffffff168373ffffffffffffffffffffffffffffffffffffffff161415801561265557508273ffffffffffffffffffffffffffffffffffffffff168473ffffffffffffffffffffffffffffffffffffffff16148061261657506126158484611820565b5b8061265457508273ffffffffffffffffffffffffffffffffffffffff1661263c83611ad1565b73ffffffffffffffffffffffffffffffffffffffff16145b5b90509392505050565b600073ffffffffffffffffffffffffffffffffffffffff168273ffffffffffffffffffffffffffffffffffffffff16036126d05760006040517f64a0ae920000000000000000000000000000000000000000000000000000000081526004016126c79190612c17565b60405180910390fd5b60006126de83836000611b28565b9050600073ffffffffffffffffffffffffffffffffffffffff168173ffffffffffffffffffffffffffffffffffffffff160361275157816040517f7e2732890000000000000000000000000000000000000000000000000000000081526004016127489190612afe565b60405180910390fd5b8373ffffffffffffffffffffffffffffffffffffffff168173ffffffffffffffffffffffffffffffffffffffff16146127c5578382826040517f64283d7b0000000000000000000000000000000000000000000000000000000081526004016127bc9392919061341e565b60405180910390fd5b50505050565b600082825260208201905092915050565b7f496e76616c69642066756e6374696f6e2063616c6c0000000000000000000000600082015250565b60006128126015836127cb565b915061281d826127dc565b602082019050919050565b6000602082019050818103600083015261284181612805565b9050919050565b6000604051905090565b600080fd5b600080fd5b60007fffffffff0000000000000000000000000000000000000000000000000000000082169050919050565b6128918161285c565b811461289c57600080fd5b50565b6000813590506128ae81612888565b92915050565b6000602082840312156128ca576128c9612852565b5b60006128d88482850161289f565b91505092915050565b60008115159050919050565b6128f6816128e1565b82525050565b600060208201905061291160008301846128ed565b92915050565b600080fd5b600080fd5b6000601f19601f8301169050919050565b7f4e487b7100000000000000000000000000000000000000000000000000000000600052604160045260246000fd5b61296a82612921565b810181811067ffffffffffffffff8211171561298957612988612932565b5b80604052505050565b600061299c612848565b90506129a88282612961565b919050565b600067ffffffffffffffff8211156129c8576129c7612932565b5b6129d182612921565b9050602081019050919050565b82818337600083830152505050565b6000612a006129fb846129ad565b612992565b905082815260208101848484011115612a1c57612a1b61291c565b5b612a278482856129de565b509392505050565b600082601f830112612a4457612a43612917565b5b8135612a548482602086016129ed565b91505092915050565b6000819050919050565b612a7081612a5d565b8114612a7b57600080fd5b50565b600081359050612a8d81612a67565b92915050565b60008060408385031215612aaa57612aa9612852565b5b600083013567ffffffffffffffff811115612ac857612ac7612857565b5b612ad485828601612a2f565b9250506020612ae585828601612a7e565b9150509250929050565b612af881612a5d565b82525050565b6000602082019050612b136000830184612aef565b92915050565b600081519050919050565b60005b83811015612b42578082015181840152602081019050612b27565b60008484015250505050565b6000612b5982612b19565b612b6381856127cb565b9350612b73818560208601612b24565b612b7c81612921565b840191505092915050565b60006020820190508181036000830152612ba18184612b4e565b905092915050565b600060208284031215612bbf57612bbe612852565b5b6000612bcd84828501612a7e565b91505092915050565b600073ffffffffffffffffffffffffffffffffffffffff82169050919050565b6000612c0182612bd6565b9050919050565b612c1181612bf6565b82525050565b6000602082019050612c2c6000830184612c08565b92915050565b612c3b81612bf6565b8114612c4657600080fd5b50565b600081359050612c5881612c32565b92915050565b60008060408385031215612c7557612c74612852565b5b6000612c8385828601612c49565b9250506020612c9485828601612a7e565b9150509250929050565b600080fd5b600080fd5b60008083601f840112612cbe57612cbd612917565b5b8235905067ffffffffffffffff811115612cdb57612cda612c9e565b5b602083019150836001820283011115612cf757612cf6612ca3565b5b9250929050565b600080600080600060808688031215612d1a57612d19612852565b5b6000612d2888828901612c49565b9550506020612d3988828901612c49565b9450506040612d4a88828901612a7e565b935050606086013567ffffffffffffffff811115612d6b57612d6a612857565b5b612d7788828901612ca8565b92509250509295509295909350565b612d8f8161285c565b82525050565b6000602082019050612daa6000830184612d86565b92915050565b600080600060608486031215612dc957612dc8612852565b5b6000612dd786828701612c49565b9350506020612de886828701612c49565b9250506040612df986828701612a7e565b9150509250925092565b612e0c816128e1565b8114612e1757600080fd5b50565b600081359050612e2981612e03565b92915050565b60008060408385031215612e4657612e45612852565b5b6000612e5485828601612a7e565b9250506020612e6585828601612e1a565b9150509250929050565b600060208284031215612e8557612e84612852565b5b6000612e9384828501612c49565b91505092915050565b60008060408385031215612eb357612eb2612852565b5b6000612ec185828601612a7e565b9250506020612ed285828601612a7e565b9150509250929050565b600060208284031215612ef257612ef1612852565b5b600082013567ffffffffffffffff811115612f1057612f0f612857565b5b612f1c84828501612a2f565b91505092915050565b60008060408385031215612f3c57612f3b612852565b5b6000612f4a85828601612c49565b9250506020612f5b85828601612e1a565b9150509250929050565b600067ffffffffffffffff821115612f8057612f7f612932565b5b612f8982612921565b9050602081019050919050565b6000612fa9612fa484612f65565b612992565b905082815260208101848484011115612fc557612fc461291c565b5b612fd08482856129de565b509392505050565b600082601f830112612fed57612fec612917565b5b8135612ffd848260208601612f96565b91505092915050565b600080600080608085870312156130205761301f612852565b5b600061302e87828801612c49565b945050602061303f87828801612c49565b935050604061305087828801612a7e565b925050606085013567ffffffffffffffff81111561307157613070612857565b5b61307d87828801612fd8565b91505092959194509250565b600080604083850312156130a05761309f612852565b5b60006130ae85828601612c49565b92505060206130bf85828601612c49565b9150509250929050565b7f4e487b7100000000000000000000000000000000000000000000000000000000600052602260045260246000fd5b6000600282049050600182168061311057607f821691505b602082108103613123576131226130c9565b5b50919050565b60008190508160005260206000209050919050565b60006020601f8301049050919050565b600082821b905092915050565b60006008830261318b7fffffffffffffffffffffffffffffffffffffffffffffffffffffffffffffffff8261314e565b613195868361314e565b95508019841693508086168417925050509392505050565b6000819050919050565b60006131d26131cd6131c884612a5d565b6131ad565b612a5d565b9050919050565b6000819050919050565b6131ec836131b7565b6132006131f8826131d9565b84845461315b565b825550505050565b600090565b613215613208565b6132208184846131e3565b505050565b5b818110156132445761323960008261320d565b600181019050613226565b5050565b601f8211156132895761325a81613129565b6132638461313e565b81016020851015613272578190505b61328661327e8561313e565b830182613225565b50505b505050565b600082821c905092915050565b60006132ac6000198460080261328e565b1980831691505092915050565b60006132c5838361329b565b9150826002028217905092915050565b6132de82612b19565b67ffffffffffffffff8111156132f7576132f6612932565b5b61330182546130f8565b61330c828285613248565b600060209050601f83116001811461333f576000841561332d578287015190505b61333785826132b9565b86555061339f565b601f19841661334d86613129565b60005b8281101561337557848901518255600182019150602085019450602081019050613350565b86831015613392578489015161338e601f89168261329b565b8355505b6001600288020188555050505b505050505050565b7f4e487b7100000000000000000000000000000000000000000000000000000000600052601160045260246000fd5b60006133e182612a5d565b91507fffffffffffffffffffffffffffffffffffffffffffffffffffffffffffffffff8203613413576134126133a7565b5b600182019050919050565b60006060820190506134336000830186612c08565b6134406020830185612aef565b61344d6040830184612c08565b949350505050565b600061346082612a5d565b915061346b83612a5d565b9250828203905081811115613483576134826133a7565b5b92915050565b600081905092915050565b600081546134a1816130f8565b6134ab8186613489565b945060018216600081146134c657600181146134db5761350e565b60ff198316865281151582028601935061350e565b6134e485613129565b60005b83811015613506578154818901526001820191506020810190506134e7565b838801955050505b50505092915050565b60006135238284613494565b915081905092915050565b600061353982612b19565b6135438185613489565b9350613553818560208601612b24565b80840191505092915050565b600061356b828461352e565b915081905092915050565b60006135828285613494565b915061358e8284613494565b91508190509392505050565b60006040820190506135af6000830185612aef565b6135bc6020830184612aef565b9392505050565b6000815190506135d281612a67565b92915050565b6000602082840312156135ee576135ed612852565b5b60006135fc848285016135c3565b91505092915050565b600061361082612a5d565b915061361b83612a5d565b925082820261362981612a5d565b915082820484148315176136405761363f6133a7565b5b5092915050565b7f4e487b7100000000000000000000000000000000000000000000000000000000600052601260045260246000fd5b600061368182612a5d565b915061368c83612a5d565b92508261369c5761369b613647565b5b828204905092915050565b600081905092915050565b50565b60006136c26000836136a7565b91506136cd826136b2565b600082019050919050565b60006136e3826136b5565b9150819050919050565b7f5061796d656e7420746f2073656c6c6572206661696c65640000000000000000600082015250565b60006137236018836127cb565b915061372e826136ed565b602082019050919050565b6000602082019050818103600083015261375281613716565b9050919050565b7f5061796d656e74206f6620666565206661696c65640000000000000000000000600082015250565b600061378f6015836127cb565b915061379a82613759565b602082019050919050565b600060208201905081810360008301526137be81613782565b9050919050565b600081519050919050565b600082825260208201905092915050565b60006137ec826137c5565b6137f681856137d0565b9350613806818560208601612b24565b61380f81612921565b840191505092915050565b600060808201905061382f6000830187612c08565b61383c6020830186612c08565b6138496040830185612aef565b818103606083015261385b81846137e1565b905095945050505050565b60008151905061387581612888565b92915050565b60006020828403121561389157613890612852565b5b600061389f84828501613866565b91505092915050565b60006040820190506138bd6000830185612c08565b6138ca6020830184612aef565b939250505056fea2646970667358221220d101142515ff4a2dab1c96fe44bf84f175ba4ddeca9011c5a5d11395cab2d8a064736f6c63430008140033a26469706673582212209e85f983629358c3996501662ef8864d1d45a665cde7d80f8a2bd12cea75fb7864736f6c63430008140033",
  "linkReferences": {},
  "deployedLinkReferences": {}
}